:020000041000EA
:1000000000B5324B212058609868022188439860DF
:10001000D860186158612E4B002199600221596106
:100020000121F02299502B49196001219960352056
:1000300000F044F80222904214D00621196600F024
:1000400034F8196E01211966002018661A6600F04E
:100050002CF8196E196E196E052000F02FF8012189
:100060000842F9D1002199601B49196000215960AB
:100070001A491B48016001219960EB211966A021F2
:10008000196600F012F800219960164914480160C1
:100090000121996001BC002800D000471248134993
:1000A000086003C880F30888084703B5996A0420EC
:1000B0000142FBD001200142F8D103BD02B5186610
:1000C0001866FFF7F2FF186E186E02BD00000240BE
:1000D000000000180000070000035F00212200005C
:1000E000F4000018222000A00001001008ED00E03C
:1000F00000000000000000000000000074B24E7A12
:1001000000200420F7010010C3010010C5010010F9
:10011000C1010010C1010010C1010010C101001097
:10012000C1010010C1010010C1010010C701001081
:10013000C1010010C1010010C9010010CB01001065
:10014000CD010010CD010010CD010010CD01001037
:10015000CD010010CD010010CD010010CD01001027
:10016000CD010010CD010010CD010010CD01001017
:10017000CD010010CD010010CD010010CD01001007
:10018000CD010010CD010010CD010010CD010010F7
:10019000CD010010CD010010CD010010CD010010E7
:1001A000CD010010CD010010CD010010CD010010D7
:1001B000CD010010CD010010CD010010CD010010C7
:1001C00000BE00BE00BE00BE00BE00BEEFF3058054
:1001D000103800BEF2EB887184540510A05405104D
:1001E0003402001090A31AE700201F49086006C8D7
:1001F00081F3088810471D48006800282FD10DA4FE
:100200000ECC002902D000F012F8F9E71849194A7B
:10021000002000E001C19142FCD1174988471749ED
:1002200088471749884700BEFDE701C901C29A42C5
:10023000FBD37047A0540510C0000020F823002015
:10024000D87705100000042000000420D87705109E
:10025000001004200010042000000000704709482E
:1002600004F066FA0047000008ED00E0000000D04E
:10027000F8230020944800206D330010191400105A
:100280002F3300105756000006005250ABB3605396
:10029000549B041006005250861C0302649B0410F9
:1002A000060052505422A29D749B04100500525027
:1002B000DE65F468D8770510F8B5C0460448054BEC
:1002C00010B5834203D0044B002B00D0984710BDDB
:1002D000F8230020F823002000000000064807490A
:1002E000091A8B10C90FC91810B5491003D0044B57
:1002F000002B00D0984710BDF8230020F8230020E1
:100300000000000010B5074C2378002B09D1FFF73F
:10031000D5FF054B002B02D0044800E000BF0123AD
:10032000237010BD1830002000000000A8800410C9
:10033000054B10B5002B03D00449054800E000BF71
:10034000FFF7CCFF10BDC046000000001C300020AD
:10035000A8800410F0B50B4E840023189B000025E4
:100360009D5123189B00B44663449D60DD608D68F9
:100370001D614D685D600B6813432418A400A351F0
:10038000F0BDC0460000054083001B189B000B48D1
:100390008446634400290CD01020824000290AD0F2
:1003A0000749186842400A40802149010B431A60FE
:1003B00070470800F1E70349F3E7C0460C00054029
:1003C0000000FFFFFFFF000010B504001F2101F037
:1003D00071F900220021200001F084F900212000A1
:1003E00001F0AAF910BD10B51C00431A0298001BB9
:1003F0005843511A04F0C8F9001910BD00B583B074
:1004000068460DF0B5FC00980199034A002304F0FA
:1004100009FA03B000BDC04640420F0010B584B0D9
:100420000421182001F046F90421192001F042F9B5
:10043000114AA4231024D450D450104B1C601C60CB
:100440000F49042001F0C6FA0121042001F0B2FA9C
:10045000002301930293039302940A4B0393012216
:1004600001A90420FFF776FF012201A90420FFF76C
:1004700071FF04B010BDC04600000540A820054033
:1004800025050010FFFF0000F0B5C64600B50600C8
:100490000F001500984611001E4804F09DF9040B4A
:1004A00029031C4804F098F94B1E994164180F2C3D
:1004B00000D810242100184804F08EF9290004F017
:1004C0008BF9451E280005F02AFE414605F0CFFDB8
:1004D00005F04CFE0022114B04F0CBFB04F09CFC19
:1004E00022090F232340FF21114009011943B300C2
:1004F0009B199B000A4A9446634459602A04120CD3
:100500001A6182B239003000FFF73EFF280080BC3C
:10051000B846F0BD40597307009435770000594044
:1005200000000540F0B5CE4600B584B0754AA4235E
:100530001021D150D150744B1B78002B00D08CE08F
:10054000724B1B78002B1CD0714B1B78DBB2172B26
:100550000AD96F4B1B78DBB2532B05D86D4B1B7838
:100560005BB2002B00DB86E0002200210420FFF7B5
:100570000BFF002201210420FFF706FF634B00223E
:100580001A70654B1B78002B63D0644B1A88644B40
:100590001B889BB29A4200D1ABE0624B188880B2B4
:1005A000614C11250095002322000021FFF71BFF5D
:1005B0005E4BFF2630404000C75A594B9946188879
:1005C00080B204F0EDFB5A4A5A4B04F070FB002253
:1005D000594B04F04EFB594A594B04F041FB04F0CF
:1005E0005FFC03904B46188880B2009500232200E0
:1005F0000021FFF7F8FE34000440524BA200D65809
:10060000039D291C301C05F079FD002800D12E1C0B
:100610004D4BA400E458311C201C05F061FD00285E
:1006200000D1341C231C3A0000210420FFF72CFFCA
:10063000231C3A0001210420FFF726FF394B1A88BA
:10064000364B1A80364B1A88404B1A80324B0022A8
:100650001A7004B080BCB946F0BD0022002104200D
:10066000FFF792FE002201210420FFF78DFE264BAA
:1006700000221A7064E7264B1878C0B205F04FFDCF
:1006800005F074FD0022324B04F0E1FA0022314BF8
:1006900004F0EFFA02000B0000208021C90504F0ED
:1006A00049FF00222C4B04F002FB04F0B5FB0400D0
:1006B000184B1878C0B204F073FB1D4A1D4B04F0B0
:1006C000F6FA0022254B04F0D4FA1C4A1C4B04F025
:1006D000C7FA04F0E5FB051C031C220000210420DE
:1006E000FFF7D2FE2B1C220001210420FFF7CCFED5
:1006F00044E7164B1A880B4B1B889BB29A4200D0DA
:100700004BE79BE7000005408F4800208E48002003
:100710008D48002092480020904800208448002006
:100720008248002080480020FF0F000078880410D5
:10073000CDCCCCCCCCCC134000FEAF409A9999994B
:100740009999A93F30880410E88704108648002052
:10075000004051400000284000807B4000C05F40C6
:10076000034B01221A70034B1870034B197070472A
:100770008E4800208D48002092480020014B012225
:100780001A7070478F480020034B01221A70034BE8
:100790001880034B19807047904800208248002041
:1007A0008048002010B50AF031FF10BD10B50400DC
:1007B00005490830012208F02DFE2070002801D0E4
:1007C000002010BD0120FCE7A880041010B5040033
:1007D00006499C239B00C01809F043FC20700028A8
:1007E00001D0002010BD0120FCE7C046AC80041001
:1007F000F0B5DE4657464E464546E0B583B00400A8
:100800008A460192002398469C239B00E5185833A2
:10081000E6183100280009F0A2FC207000280CD155
:100820002A4BE35C002B08D0B5239B00E35CDB067E
:10083000EAD401239C46E044E6E7012343449B4677
:10084000980005F05DFD071E5346186027D020482C
:100850003CF0D8F838600021280009F080FC01271E
:10086000B84525DB3100280009F079FC207000280C
:100870001ED1164BE35C002B1AD0B5239B00E35C22
:10088000DB06EDD453461A68BB00914699440F4BE2
:10089000E0183CF0B7F84B4618600137E0E7280055
:1008A00009F048FC0B490022100008F0B3FD05E0F8
:1008B000019B5A461A60280009F03CFC03B0F0BCCA
:1008C000BB46B246A946A046F0BDC046E2020000C3
:1008D000B0800410A8800410024A835C01214B40C0
:1008E000835470475508000070B504001500FA23C2
:1008F0009B00C6180122300008F0BCFD20700028C3
:1009000009D1002306222900300008F05AFF3000E8
:1009100009F033F970BD03490022002008F07AFD88
:10092000F8E7C046A8800410F0B5D6464F464646C4
:10093000C0B582B0804692469946FA25AD0045443E
:100940000122280008F096FD43461870002806D1C1
:1009500006220023280009F027F9002418E01F4987
:100960000022002008F056FD29E00023042201A9FE
:10097000280008F026FF8423DB0043441A685B68E4
:10098000019E002792197B41280009F00DF90134DE
:100990004C45EAD3002304225146280008F011FFF9
:1009A000042005F0ADFC011E534658600DD01A68B6
:1009B0000023280008F005FF280009F0DEF802B047
:1009C000E0BCBA46B146A846F0BD280009F0D5F80B
:1009D00002490022100008F01DFDF0E7A880041075
:1009E0004BB2002B01DA034870479331FF31890085
:1009F0000858F9E7B8800410F8B5DE4657464E4669
:100A00004546E0B505008B46496800263BE04A783C
:100A10009146021D90468A789246902B18D1002A62
:100A200016D049462800FFF7DBFF2C4BE850043373
:100A30005246EA5004E0FFF7A1FE0A2001F07DFFD4
:100A4000274BEB5C002BF6D1200001F076FF15E080
:100A500049462800FFF7C4FF204BE85004335246B4
:100A6000EA5004E0FFF78AFE0A2001F066FF1C4B03
:100A7000EB5C002BF6D1200001F05FFF51464846A9
:100A8000FFF76EFE41465B461B68B34220D9154B0B
:100A9000EB5C002B1CD00024080001310378E4013A
:100AA0007F221A4014435BB2002BF5DB3619831CFE
:100AB0009C460A780F2317009F433B00902FA6D037
:100AC000802FA4D0FF2A01D06146DCE7011DDAE7C0
:100AD000F0BCBB46B246A946A046F8BD4C08000093
:100AE000550800005408000010B584B01B4B1C4A88
:100AF0009B5C002B0CD1194B194A9B5C002BF5D148
:100B0000184B58229B5C002BF0D1FFF737FEEDE726
:100B1000144BDA6C5B6D9B00D15810486A46FFF7A6
:100B2000E3FE6B465B88002B04D10C4B0C4A002182
:100B30009954E0E70B4BDA6C5B6D9B00D158074C86
:100B4000002302AA2000FFF7EFFE02A92000FFF712
:100B500053FF039805F0EAFBE7E7C046C0270020F3
:100B600054080000BC45002070B5A0B0002304E08C
:100B70009C0000256E46A55101331F2BF8DD002394
:100B800006E09D002C586D58A4006E46A551013317
:100B90009342F6DB0022002007E040001F239B1A4F
:100BA0009B0069465B58181801321F2AF5DD20B0FA
:100BB00070BD10B5002007E007231B1A9B0001241D
:100BC0001440CC50520801300728F5DD10BD70B537
:100BD00004000522FFF7C8FFE369D0252D062A6926
:100BE00050401840E8616369012632009A406A610A
:100BF0006420002101F094FE63699E40AE61642090
:100C0000002101F08DFE70BD30B587B005001400E5
:100C10000591002304E09900085901AA8850013386
:100C2000032BF8DD01A92800FFF7D1FF002306E020
:100C3000191D89000859990001AA88500133032B16
:100C4000F6DD01A92800FFF7C2FF07B030BD10B5DF
:100C500000248461C4618462C462029C04604360B5
:100C60008260C160039B0361049B4361059B036237
:100C7000069B436210BD10B588B0040020220021FD
:100C8000684605F06BFB012307936A4600212000AC
:100C9000FFF7BAFF0A2001F050FE08B010BD0000B7
:100CA000F0B5A9B0040022AE394D2B0060333200FC
:100CB00083CB83C283CB83C21DA92B0078330A0068
:100CC00083CB83C203CB03C200231893199301275C
:100CD0001A971B931C932022002110A805F03EFBBD
:100CE000129708A92B4B0A0083CB83C283CB83C204
:100CF00003CB03C269462B0040330A00A1CBA1C23B
:100D000023CB23C203CB03C2062231002000FFF70E
:100D10002BFF0500A061052231002000FFF724FF12
:100D2000E061280000F02BFDA269D0231B065A6267
:100D30009A61636A022B01D0042B01D10123149321
:100D40001DA92000FFF743FF1DA92000FFF73FFF6B
:100D50001DA92000FFF73BFF18A92000FFF737FF70
:100D600010AA00212000FFF74FFF08AA0021200051
:100D7000FFF74AFF6A4600212000FFF745FF2000E9
:100D8000FFF779FF0023A362E36229B0F0BDC046FC
:100D90009C8804102889041010B588B00400130042
:100DA0000A00406A02280CD004280ED069462000B0
:100DB000FFF7FFFE6A4600212000FFF725FF08B07D
:100DC00010BD9B015A188032F0E7002B01D1803210
:100DD000ECE7012B05D0022B05D0032BE6D1D43252
:100DE000E4E7C032E2E79432E0E770B588B005008E
:100DF0000E00002409E069462800FFF7DAFE6A4683
:100E000001212800FFF700FF0134325D002AF2D1F2
:100E100008B070BD10B5064C2000FFF741FF200060
:100E2000FFF729FF002200212000FFF7B5FF10BDCA
:100E30002046002070B51D4C002206212000FFF73F
:100E4000ABFF1B492000FFF7D0FF0122002120004B
:100E5000FFF7A2FF174E31002000FFF7C6FF012267
:100E600013212000FFF798FF134D29002000FFF702
:100E7000BCFF022205212000FFF78EFF0F49200052
:100E8000FFF7B3FF032200212000FFF785FF3100A9
:100E90002000FFF7AAFF032213212000FFF77CFFA9
:100EA00029002000FFF7A1FF70BDC04620460020AA
:100EB000BC800410C8800410CC800410D0800410C2
:100EC00070B582B00500080013230093123B0A4A54
:100ED0000021FFF788FA041E01D102B070BD074E51
:100EE000012201213000FFF757FFA40061593000B3
:100EF000FFF77BFFF1E7C046FF0F00002046002010
:100F000070B582B00500080013230093123B0A4A13
:100F10000021FFF768FA041E01D102B070BD074E30
:100F2000032201213000FFF737FFA4006159300090
:100F3000FFF75BFFF1E7C046FF0F000020460020EF
:100F400010B5084C2000FFF796FE01220221200078
:100F5000FFF722FF04492000FFF747FF034801F095
:100F6000ECFC10BD20460020DC800410881300003B
:100F7000F8B505001A4C2000FFF77DFE0022002185
:100F80002000FFF709FF17492000FFF72EFF6E6DC5
:100F9000023E06D4F31C2F6D9F4200DB1F0034007D
:100FA0000CE00026F6E710490D48FFF71EFFEA6C3B
:100FB000A300D1580A48FFF718FF0134BC420DDAEC
:100FC000A21B013206480021FFF7E6FE6B6DA3422B
:100FD000E9D006490248FFF708FFE8E7F8BDC04638
:100FE00020460020F08004100081041004810410C9
:100FF00010B50400406D0130216D03F0C5FB616543
:1010000010BD000070B50500174C2000FFF733FE3F
:10101000002200212000FFF7BFFE14492000FFF747
:10102000E4FE012200212000FFF7B6FEEA6C6B6DA2
:101030009B00D1582000FFF7D8FE0D492000FFF794
:10104000D4FE022200212000FFF7A6FE094920005D
:10105000FFF7CBFE032200212000FFF79DFE06498B
:101060002000FFF7C2FE70BD20460020088104105A
:101070001C810410208104103481041010B505F087
:1010800085FB1B20FFF7A0F91A20FFF79DF910BD83
:1010900010B51C2000F068FB1D2000F065FBD0237C
:1010A0001B06802252059A62802292059A6210BD28
:1010B000084B1B68E022D2011340074A1360074B1C
:1010C00004221A60034B1B68DB05FBD5014B5868F3
:1010D00080B2704700C0044000D0044000E00440EB
:1010E0000A4B1A6880235B015340E022D20113406F
:1010F000074A1360074B04221A60044B1B68DB0588
:10110000FBD5024B586880B27047C04600C004400F
:1011100000D0044000E0044010B50400D0231B06BA
:101120005A68120F012313400361826893420FD162
:10113000FFF764F9A369C01A236A98420CD923699E
:10114000226893420AD02360002B09D0002004E0DB
:10115000FFF754F9A061EBE7002010BD0020FCE789
:101160000120FAE710B50400D0231B065A68520F7D
:10117000012313404361C26893420FD1FFF73EF948
:10118000E369C01A236A98420CD963696268934282
:101190000AD06360002B09D0002004E0FFF72EF98D
:1011A000E061EBE7002010BD0020FCE70120FAE73A
:1011B0004369C360036983607047000010B5040091
:1011C00009494C2205F0D0F80023236563655822B5
:1011D0000121A1540132A3540132A3540132A3547A
:1011E0000132A354200010BD4889041010B504003A
:1011F0000849C923DB00C0188122920005F0B4F829
:10120000002385221201A350034AA354034AA35486
:10121000200010BD948904105408000055080000F7
:1012200030B587B004000D00012806D0002C02D193
:10123000124B9D421DD007B030BD104B9942F5D1E5
:101240000F480AF0F9FE0F48042304931421039178
:101250000B330293013B019309330093013B1522A9
:10126000FFF7F5FC0848FFF7A9FF0848FFF7BEFFA6
:10127000DCE703480AF0F0FEDDE7C046FFFF0000B0
:101280003845002020460020BC450020C027002013
:10129000F0B5C64600B50C000E004E438846370038
:1012A0004F437C43012580450BD8B04208D3B84258
:1012B0000BD3A0420BD3210003F08EFA0435F2E7E2
:1012C0000135280080BCB846F0BD0235F9E703358A
:1012D000F7E70000F8B5070014004E1E11E0642186
:1012E000200003F079FA4D006421200003F074FA25
:1012F00004006A1C0A4B9A5CBA55721E5B5DBB54B3
:10130000023E632CEBD8092C07D96400621C044B05
:101310009A5C7A701B5D3B70F8BD30343C70FBE723
:101320001C870410F8B50500CF0F002915DB0C0051
:101330000A212000FFF7ACFF060039182B00083304
:101340002B602D2228002AF05FFC2868C01922009B
:101350003100FFF7BFFF2800F8BD4C42E8E700006E
:10136000F0B587B005000E0011001F006846FFF7BA
:10137000D9FF234C002200212000FFF70DFD214959
:101380002000FFF732FD012200212000FFF704FDBD
:10139000EA6C6B6D9B00D1582000FFF726FD0222FE
:1013A00000212000FFF7F8FC17492000FFF71DFD82
:1013B00039002000FFF719FD14492000FFF715FD43
:1013C00000992000FFF711FD002E0ED00C4C0322D7
:1013D00000212000FFF7E0FC0D492000FFF705FD8C
:1013E00068462AF007FC07B0F0BD054C0322002137
:1013F0002000FFF7D1FC07492000FFF7F6FCEFE7DC
:101400002046002050850410608504106885041073
:101410007085041088850410F0B5C64600B57C4878
:10142000FFF7F8FC7B48FFF7BDF97B4C2000FFF786
:101430002FFE2000FFF722FEFEF7F0FF77480AF0AC
:10144000DDFB012484E0744F3800FFF749FE0500FE
:101450003800FFF72DFE060001002800FFF794F981
:101460006B4B98461800FFF7E5FC31004046FFF74C
:1014700027FD29004046FFF743FD3800FFF74CFEEB
:1014800000286BD06348FFF791F9002804D0614829
:10149000FFF79CF9002803D15D48FFF751FD5DE09F
:1014A0005F4D291F5B482A00FFF7A2F9503D5923E1
:1014B0000122EA54013B0022EA544FE05448FFF76E
:1014C00057FD002451E05248FFF792FD2C0051E0F7
:1014D0004F4859230022C25401330132C254FFF74E
:1014E00091FD4B4B5A229B5C002B58D1484B5B2201
:1014F0009E5C002E29D047494A4BCB5885221201C9
:101500008A584948095C4248FFF72AFF4248FFF7DA
:1015100003FE002869D14048FFF724FE051E68D16C
:101520003C4B424A9B5C002B0FD1394B59229B5CB0
:10153000002B0AD1364B023200219954023A013174
:1015400099543B48FFF797FB34003348FFF730FED0
:101550002F4B58229B5C002B00D074E72C4B592258
:101560009B5C002BBDD0002CA8D12B48FFF7FAFDC7
:10157000051EA8D12848FFF7CFFD051EB1D0244B8A
:101580005B6D002BA4D1224B592200219954013AC2
:10159000013199542648FFF76EFB2C00A1E71E4845
:1015A000FFF7BAFD002810D11B48FFF7DBFD051E31
:1015B0009CD0174B5A2200219954013A0131995479
:1015C0001B48FFF758FB2C0090E7114B01215B22D1
:1015D000995400225A201A540E4B14481954124997
:1015E0005A541348FFF747FBDEE70A48FFF774F940
:1015F00091E7084B00220D495A54054B5B215A5480
:1016000059325A3999540A48FFF735FB2C0087E7BD
:10161000BC450020C027002034150020E90A001036
:101620000C4600204C08000055080000540800003B
:101630002046002010B502490120FFF7F1FD10BD42
:10164000FFFF00000120704710B50400FFF7FAFF0C
:10165000A04205D3AE2080006043044BC01810BDEB
:10166000034B044A0448552101F064FE581500203C
:10167000988B0410248C0410AC8B0410012070474C
:1016800010B50400FFF7FAFFA04205D320010019AE
:101690008000044BC01810BD034B044A044862216B
:1016A00001F048FE10180020FC8B0410148C04106C
:1016B000AC8B041010B58300084A944663441A6842
:1016C00040246240803414408022520113431C6045
:1016D000C000034B9C466044416010BD04C0014003
:1016E0000040014080000B4B9C46604400290DD017
:1016F0000823002A0CD004221343026853400C2212
:101700001A4080235B0103431A6070470023F0E70F
:101710000022F1E704C001408000064B9C46604473
:1017200009010368594030220A4080235B010343CA
:101730001A60704704C00140002909D08000094B9D
:101740009C46604480239B01034340221A607047FB
:101750008000044B9C466044C0239B01034340220D
:101760001A60F4E704C0014010B501238340D02281
:101770001206936293610521FFF79CFF10BD70B5BF
:101780000500002401E06D0801341D2C05D8EB078D
:10179000F9D52000FFF7E8FFF5E770BD034B1B68A4
:1017A00002201840431E9841C0B2704700C0064056
:1017B000EFF3108072B6034B1B68002BFBD0BFF316
:1017C0005F8F70472C0100D0BFF35F8F024B002268
:1017D0001A6080F3108870472C0100D0F8B506001D
:1017E0000C001500FFF7E4FFE308F718F15C07228F
:1017F0002240012393400B4205D1DBB20B433B70E7
:10180000FFF7E2FFF8BD2100280001F073FEF0B5FC
:1018100083B00600019114001F00FFF7C9FF00E02C
:101820000134BC420CD8E308F518F35C07212140D1
:1018300001228A401A42F3D1D2B21A432A7001E03F
:1018400001246442FFF7C0FF002C02DB200003B03C
:10185000F0BD019B002BF9D0089801F04BFE000071
:10186000002307E0054A9A189200BFF35F8F00211A
:10187000116001331F2BF5D97047C046400000347A
:10188000054A1078431CDBB21370172B02D91300E2
:1018900010221A707047C04654180020074B9B68EE
:1018A000103080001950BFF35F8FBFF35F8F044B80
:1018B0000021196082F310887047C04600ED00E0F7
:1018C000240100D010B50388DA0A1C2A05D15B0573
:1018D0005B1502335B00C01810BD034B034A04487C
:1018E000B12101F027FDC046348C0410948E041001
:1018F0004C8C041010B5091A0B1F0A4A88180A4AA2
:10190000904208D8C90706D45B105B055B0D0748F9
:10191000184380B210BD064B064A0748A32101F0C8
:1019200009FDC046FC070000FE0F000000E0FFFFBD
:101930008C8C0410888E04104C8C041010B5091A7D
:1019400004394A08090B08D14905490D064B0B43D8
:101950000380064B1343438010BD054B054A0648E0
:10196000AB2101F0E7FCC04600F0FFFF00F8FFFFED
:10197000BC8C04105C8E04104C8C0410012383403A
:10198000034A10681840431E9841C0B27047C046D1
:1019900000E100E0002904D0034B1860034B1860FD
:1019A0007047034B1860FBE780E200E000E100E0D5
:1019B00080E100E010B5012383401800FFF7EAFF43
:1019C00010BD0000024B9B6810308000C05870476B
:1019D00000ED00E070B504000D00EFF3108672B664
:1019E0000C4B1B68002BFBD0BFF35F8F2000FFF771
:1019F000E9FF094B984201D0A84205D132002900E5
:101A00002000FFF74BFF70BD044B054A05488621B7
:101A100001F090FC240100D0CD010010CC8C04100A
:101A2000BC8E04104C8C0410F0B5DE4657464E4672
:101A30004546E0B589B0814601911500EFF3108A63
:101A400072B66D4B1B68002BFBD0BFF35F8F6B4BE7
:101A500000269E57002E41DB7400A419A40068489C
:101A600024180622A256654B1A70664B9A684B469C
:101A700010339B00D35898461F00181A2F2839D9C5
:101A8000614B984530D105AF604B3B806049730096
:101A90009B46981980005A4B984640440230FFF705
:101AA00029FF78805B4BBB80FF23BB71FD71019BDD
:101AB000079333005B449B00434407CF07C30123D4
:101AC0001C43A046524641464846FFF7E7FE09B090
:101AD000F0BCBB46B246A946A046F0BD4E4B4F4AAD
:101AE0004F48D72101F026FC4E4B4C4A4C48DE2192
:101AF00001F020FC01380C2102F06EFE002912D109
:101B000001239F43BB463B000027DA79AA4211D943
:101B10000621595600290CDB4A0052189200384918
:101B20001F008B18F1E7404B3C4A3D48EA2101F089
:101B300001FC1F00002F2ED005AB3C4A1A80813AD1
:101B40005A800623FB560293002B17DA384805AB60
:101B50009B469880029A9A71DD71019A0792381D0E
:101B60002100FFF7C7FEB880BE71254B72009219A5
:101B700092009B185A4613CA13C3A3E7381DFFF7F8
:101B8000A1FE01007000801980001D4BC0180430B8
:101B9000FFF7B0FEDBE705AF1C4B3B801C49730031
:101BA00002939B199B00164A90461A0042440392E6
:101BB000901CFFF79FFE7880039A101D5946FFF78F
:101BC00099FEB8801B4B5A464146521A5241534324
:101BD0001B0DBB71FD71019A0792029B9B199B0023
:101BE000434407CF07C3114B5A461380813B5380B0
:101BF00001231C43A04665E7240100D08C48002047
:101C00005818002000ED00E0CD01001000A1FFFFFA
:101C10008818002001BDFFFF048D0410A48E04105D
:101C20004C8C04102C8D0410548D041001480000BD
:101C300001BD0000AAAA0000F0B5CE46474680B517
:101C400083B006000D00EFF3108872B64F4B1B688F
:101C5000002BFBD0BFF35F8F4D4B9A6834001034DC
:101C6000A300D7584B4B9F4207D0AF4200D18BE027
:101C70000197494BFB1A2F2B09D9424639003000F6
:101C8000FFF70CFE03B0C0BCB946B046F0BD300053
:101C9000FFF774FE814600213000FFF78BFEBFF393
:101CA0005F8FEFF30581002901D08C4211D1012310
:101CB000019C9C430020A368AB4212D00622A2568E
:101CC000002A0DDB53009B189B00334A2000D418D8
:101CD000F1E7324B324A36213248FF3101F02AFB1C
:101CE0002000AB4249D106256557002D2BDB2A4B3E
:101CF0006A00521992009B189A68A260DA79E27120
:101D00009B795BB2A371002B0FDA2748A080224B8E
:101D10006A00521992009B18244A11789971157023
:101D200049463000FFF746FEA7E7680040198000EB
:101D3000194BC0180430FFF7C5FD0100231D180022
:101D4000FFF7D8FDE2E7002912D100280ED0FF23CB
:101D50008371174B838015490B78A3710E4A154B7D
:101D6000A41A644163431B0D0B70D9E7094FF2E7D6
:101D70001149201DFFF7E2FDD2E7104B084A6A2106
:101D80000848FF3101F0D6FA024F76E7240100D06F
:101D900000ED00E0CD01001058180020C88D04109F
:101DA000748E04104C8C041001BD00008C4800207F
:101DB00001BDFFFFAAAA000092180020FC8D0410AC
:101DC00070B5012202432E4BD31A2F2B28D8EFF3E4
:101DD0000583002B2BD0EFF3108C72B629490968CC
:101DE0000029FBD0BFF35F8F254C274905002D1B31
:101DF0006D416943090D4CB2244989689B00C9585B
:101E000091421BD00021032932D81D4B4A005218A1
:101E100092009B189B795BB2A3421FD00131F2E77D
:101E20001B4B1C4AC7211C48490001F083FA1B4B7D
:101E3000184A92211848FF3101F07CFA134A92683F
:101E40001749D150174B1A7882711C70BFF35F8FFE
:101E50000C4B00221A608CF3108870BD084B4A00AE
:101E60005518AD005D19FF26AE710F4AAA80E9E74B
:101E70000E4B084AD1210848490001F05BFAC046E0
:101E800058180020240100D0AAAA000000ED00E0AC
:101E9000048E0410408E04104C8C04102C8E041000
:101EA000CD0100108C48002001BDFFFF388E0410CA
:101EB0000022044B02E0044902C30132072AFAD986
:101EC0007047C04600E400E08080808010B5002BA1
:101ED00002DB0260436010BD024B034A03483F210E
:101EE00001F028FAD88E0410AC8F0410F48E041080
:101EF00010B582B0040000F0B1FD02000B0068468E
:101F0000FFF7E4FF009A019B22606360200002B0AB
:101F100010BD000070B582B0060014001D00FA224A
:101F2000920000230698002104F064F802000B00E0
:101F300012196B41002B09DB6846FFF7C7FF009AB7
:101F4000019B32607360300002B070BD01225242CA
:101F5000004BF1E7FFFFFF7F30B585B004000D00B7
:101F600002A8FFF7C5FF029A039B00952000FFF728
:101F7000D1FF200005B030BD70B504000E00150083
:101F8000FFF77EFC0100200000F006F8A680E58047
:101F9000BFF35F8F70BD0000024B9C466144890017
:101FA000016070474000003410B50400FFF768FC82
:101FB00001002000FFF7F0FFFF232371BFF35F8FC5
:101FC00010BD10B50400FFF75BFC01002000FFF717
:101FD000E3FFFF23237100236371BFF35F8F10BD05
:101FE000084B5B6A994209D8064A926A824207D234
:101FF000994201D0012002E0002000E0002070475B
:102000000120FCE70040054010B500290AD0036814
:102010001B7B8B4206D38068054B9C4661440901BB
:10202000401810BD034B044A04483C2101F082F9DA
:10203000FFFFFF0F789004109C9304109C900410F5
:10204000F8B504001700FFF7DFFF066845683900A0
:102050002000FFF7D9FF026843680120AB4201D896
:1020600002D00020C0B2F8BDB242FBD8F9E70000B0
:1020700010B5002B02DB0260436010BD024B034A27
:1020800003483F2101F056F9D88E041068930410DC
:10209000F48E041010B582B004000498059912184B
:1020A0004B41002B09DB6846FFF7E2FF009A019BDA
:1020B00022606360200002B010BD01225242014B39
:1020C000F1E7C046FFFFFF7F10B5002908D0037B72
:1020D0008B4205D300684B005B18033BC01810BD52
:1020E000024B034A0348682101F024F9D4900410FC
:1020F00044930410F090041010B5437B8B4201D13F
:10210000012010BDFFF7E0FF8378002B01D10020F4
:10211000F7E70120F5E770B50400857B002D01D1BC
:10212000280070BD2900FFF7CFFF4378A373002B71
:1021300000D1E3730023837043700370F0E7000065
:10214000F8B506000C001500FFF7BEFF0700002CD5
:102150000DD0002D11D0AC4215D029003000FFF772
:10216000B3FF84703B78002B13D13D70F8BD0A4B50
:102170000A4A0B486F2101F0DDF80A4B074A08486C
:10218000702101F0D7F8084B044A0548712101F08D
:10219000D1F843703D70E9E73C910410209304109E
:1021A000F0900410489104105491041070B506008A
:1021B0000D001400002914D0002A14D04368806850
:1021C0009847002806D0220029003000FFF7B8FF0A
:1021D000280007E02A0021003000FFF7B1FF2000AF
:1021E00000E0100070BD0800FCE7000070B50400BE
:1021F0000D1E0CD0FFF768FF00238370437003703F
:10220000617B2A002000FFF7D1FF607370BD034B94
:10221000034A0448A52101F08DF8C0466C910410D2
:1022200034930410F090041070B504000D1E0FD00C
:10223000FFF762FF00280BD1E17B00290ED1A37BC1
:10224000002B03D1E37B002B0DD1A573E57370BD8B
:10225000084B094A0948F62101F06CF82000FFF705
:1022600033FF4570EBE7064B034A0448FB2101F0BE
:1022700061F8C0467091041010930410F09004109F
:102280009491041010B5002907D003681B7B8B4282
:1022900003D3C0680139401810BD034B034A0448FA
:1022A000412101F047F8C04678900410FC920410D8
:1022B0009C90041070B505000C00080000F0C8FCEC
:1022C0000949200000F008FCFFF7DAFA074B9C46AA
:1022D0006044800068602C75D0231B061B786B75EA
:1022E000034BA400E55070BD0124001040000034F1
:1022F000504600200A4B1A68EFF3108172B613683B
:10230000002BFCD0BFF35F8F054B1B68BFF35F8FC3
:1023100000221A6081F3108840BF0020002170471E
:102320006448002010B582B0040000F097FB020062
:102330000B006846FFF79CFE009A019B22606360D9
:10234000200002B010BD70B584B0040016001D005E
:1023500002A8FFF7E7FF029A039B00960195200071
:10236000FFF798FE200004B070BD0000F0B583B008
:10237000070001921D000AAB1C780BAB1E78002CE5
:102380000BD000682100FFF7B7FE002809D0194BD9
:10239000194A1A48672100F0CDFF0068FFF7BBFE1D
:1023A0000400002C02D1200003B0F0BD2100380051
:1023B000FFF72AFE019B03604560089B8360099B31
:1023C000C36038682100FFF711FFA042EBD1387DD0
:1023D000019A2B0000F0C8FB051E01D0002E04D08E
:1023E0000C9B002BDFD01D70DDE73868210000F06A
:1023F00075FDF5E7A8910410509304109C9004100B
:10240000F0B5DE4657464E464546E0B58FB00B90D8
:102410000021794B8200D458894683E029002000AE
:10242000FFF7F2FD804602684368921BBB41002B18
:1024300009DD43461A685B680B9800F095FB0023A2
:10244000984600268AE0002B01D1002AF1D1002114
:10245000584600F039FD0700A84215D143461A68D6
:102460005B680892099343469E68DB689846002E95
:1024700010D029002000FFF705FF037899461B02C2
:102480001F432761002069E05C4B5D4A5D488E2157
:1024900000F050FF5C4B5A4A5A48922100F04AFF24
:1024A0002369002B00D177E0BB4219D10698079928
:1024B000002342428B4100920193089A099B0CA889
:1024C000FFF7E8FD0C9A0D9B002104910131039167
:1024D00002954146019100962000FFF747FF16E064
:1024E0004A4B474A4748A12100F024FF069A079B20
:1024F000002B01D1002A52D120682900FFF794FE59
:1025000029002000FFF7BEFE03780133037000238B
:1025100023616268BFF35F8F13608AF31088012024
:10252000002861D00CA8FFF7FDFE0C9E0D9F002235
:102530000023089209936268EFF3108A72B6136859
:10254000002BFCD0BFF35F8F23689B465D7B002D83
:1025500000D063E700239846002600206368BFF39D
:102560005F8F00221A608AF31088002ED8D04B4665
:102570001F022F4341463800B0470690079162681A
:10258000EFF3108A72B61368002BFCD0BFF35F8F95
:10259000079B002B00DA83E7079B002BA6DD23694E
:1025A000002BA9D0BB4219D10CA8FFF7BBFE0C9A97
:1025B0000D9B06980799009001910CA8FFF76AFD02
:1025C0000C9A0D9B00210491013103910295414623
:1025D000019100962000FFF7C9FE98E70B4B084ACF
:1025E0000848A42100F0A6FE0FB0F0BCBB46B246DE
:1025F000A946A046F0BDC04650460020D091041028
:10260000809304109C900410E8910410F49104103D
:1026100010B50C4B5B68002B04D00B480A21FFF768
:10262000BBFC10BD074C094A20682300102100F0B4
:10263000B6FB032000F006FA03212000FFF73AFE64
:10264000EBE7C046A018002064480020412000109D
:1026500010B5064B5B68002B01D0044810BD044B3D
:10266000044A05485E2100F065FEC046A01800201F
:1026700030920410E49204109C900410F0B5DE46F1
:1026800057464E464546E0B58DB0060090461F00C1
:10269000169B9A46179B994618AB1B7807932723DE
:1026A00002AA9446634400221A7021E0010030001F
:1026B000FFF7E8FD00783CE00698002B5CD0079B14
:1026C000002B59D04946D04704000D0003000B43AE
:1026D00059D0002940DB08A8FFF724FE089A099B7F
:1026E0000094019508A8FFF7D5FC089B9846099F20
:1026F0007268EFF3108B72B6136859424B41D9B22E
:102700000691002BF8D1BFF35F8F273302AA9446BE
:10271000634404930023039302934B46019353466F
:10272000009342463B003000FFF720FE0400051EE8
:10273000BCD17368BFF35F8F002119608BF31088E1
:10274000002D17D0272302AA944663441B78002B40
:10275000B2D100022043B0E700236242AB410092B5
:10276000019342463B0008A8FFF794FC089B98465B
:10277000099FBDE7012040420DB0F0BCBB46B24608
:10278000A946A046F0BD0698F6E7F0B5C64600B5E6
:1027900084B00500884616001F000AAB1C78FFF7BE
:1027A00057FF0294019700962A004346FFF766FF01
:1027B00004B080BCB846F0BDF0B5C64600B5050013
:1027C0000C1E42D04268EFF3108772B61368002BDC
:1027D000FCD0BFF35F8FE6B22B689846310018003B
:1027E000FFF78AFC00282AD02B69A34213D0240AC1
:1027F000E4B231002800FFF745FD0378A34211D071
:1028000000206B68BFF35F8F00221A6087F3108887
:1028100080BCB846F0BD0E4B0E4A2C210E48FF314D
:1028200000F088FD3100404600F058FB0028E8D158
:102830000A4B084A99210848490000F07BFD2B69A2
:10284000A342DED100232B61DBE70020E0E7C04696
:1028500054920410CC9204109C90041078920410AE
:1028600010B50400FFF7F4FE2100FFF7A5FF10BD2F
:1028700030B587B004000D00EFF30583002B20D1A5
:1028800006225242D31712196B418B4202D803D150
:10289000824201D90022002304A8FFF7E9FB02A825
:1028A000FFF740FD02980399049A059B121A8B4189
:1028B000002B0BDC08D02000290000F0DBF807B06B
:1028C00030BD144800F016FE002AF4D0124A0498D5
:1028D000059900230093FFF758FF002813DAEAE771
:1028E0000E4B1A68EFF3108172B61368002BFCD000
:1028F000BFF35F8F094B1B68BFF35F8F00221A6025
:1029000081F3108820BF04980599FFF769FB002820
:10291000E6D0D0E77C920410F52200106448002035
:1029200000B583B002000B006846FFF70CFD00986D
:102930000199FFF79DFF03B000BD10B5FA22920088
:102940000023002103F056FBFFF7EAFF10BD000053
:1029500030B583B005000C00EFF30583002B0FD1D9
:102960000B4A00230093FFF710FF00280BDD20BF68
:10297000FFF776FF28002100FFF732FB03B030BDE0
:10298000FFF72EFBFAE728002100FFF729FBF5E708
:10299000F522001010B5002B02DB0260436010BD71
:1029A000024B034A03483F2100F0C4FCD88E0410B8
:1029B00058940410F48E041070B5EFF305801038AD
:1029C000EFF3108C72B6194B1B68002BFBD0BFF3D2
:1029D0005F8F01221300834015494B6315490B603B
:1029E000154909780C00C440224213D0104A546A99
:1029F000124A8500AA58944205D3114AAA580E4C8F
:102A00009943217007E00A4A031D9B009958995089
:102A1000002200E00022BFF35F8F044B0021196009
:102A20008CF31088002A00D0904770BD280100D098
:102A3000004005403C700540914800206C48002053
:102A40003C45002010B50100024A034B1800FEF778
:102A5000C5FE10BDB093041089480020044B5B6A8A
:102A6000034A906A1900536A9942F9D17047C046E7
:102A700000400540084B5B6A01E0074B5B6A8B42F4
:102A8000FBD301E0044B5B6A8B4203D1024B9B6A90
:102A90008342F7D37047C04600400540F0B583B08D
:102AA00004000D00FFF7DAFF06000F0022002B00E4
:102AB00092197B41994202D804D1904202D9012255
:102AC0005242D3176846FFF765FF00980199FFF758
:102AD000D1FF03B0F0BD000070B504000E00EFF3AD
:102AE000108572B61B4B1B68002BFBD0BFF35F8FAA
:102AF000002E1CD02000FEF765FF174B83420BD041
:102B000019002000FEF766FF01212000FEF752FFAA
:102B10000123A340114A1360114BA400E650BFF3F8
:102B20005F8F0C4B00221A6085F3108870BD0C4B30
:102B3000A2000021D1500122A2400A490B78934300
:102B40000B7005492000FFF777F800212000FEF701
:102B500031FFE4E7280100D0B929001038600540B2
:102B60003C45002091480020F0B5DE4600B584B019
:102B70000400150001921E000293FFF76FFF0395FA
:102B80008E4202D84ED185424CD9EFF3108B72B6EB
:102B9000274B1B68002BFBD0BFF35F8F254A1778AC
:102BA0000125A540EBB23B431370234B5D63221D0F
:102BB00092000199D150214AA100029888501B6AC5
:102BC0002B4212D11C4B1B6C2B4208D00020BFF3B0
:102BD0005F8F174B00221A608BF3108823E0184B8D
:102BE000184A1948C52100F0A5FBFFF737FF8E42B0
:102BF00014D802D1039B834210D80E4B1B78BB42E2
:102C00000ED00D4B1D625D631F22224001239340B5
:102C10000E4A1360074B1F700120D8E70020D6E74B
:102C20000120D4E7012004B080BCBB46F0BDC04603
:102C3000280100D091480020004005406C48002049
:102C4000D49304103C940410F893041080E200E044
:102C5000EFF3108C72B60B4B1B68002BFBD0BFF34D
:102C60005F8F01238340084A136208490A789A4318
:102C70000A70BFF35F8F034B00221A608CF3108839
:102C80007047C046280100D0004005409148002010
:102C900010B5002908D0037B8B4205D300684B0098
:102CA0005B18033BC01810BD024B034A0348682160
:102CB00000F040FBD490041060950410F0900410D4
:102CC000F8B506000C001500FFF7E2FF0700002C26
:102CD0000DD0002D11D0AC4215D029003000FFF7E7
:102CE000D7FF84703B78002B13D13D70F8BD0A4BA1
:102CF0000A4A0B486F2100F01DFB0A4B074A08489F
:102D0000702100F017FB084B044A0548712100F0C0
:102D100011FB43703D70E9E73C9104104C950410A1
:102D2000F0900410489104105491041070B50600FE
:102D30000D001400002914D0002A14D043688068C4
:102D40009847002806D0220029003000FFF7B8FF7E
:102D5000280007E02A0021003000FFF7B1FF200023
:102D600000E0100070BD0800FCE770B5050000230E
:102D7000437301338373037BC373012406E0210093
:102D80002800FFF785FF0134E4B24470297BA1429B
:102D9000F5D82800FFF77CFF0023437070BD10B505
:102DA000017342608360FFF7E0FF10BDF0B5C646D7
:102DB00000B505000C1E03D1200080BCB846F0BD54
:102DC000FFF766FF4678002EF6D031002800FFF7A7
:102DD0005FFF477800239846437021002800FFF7E3
:102DE00057FF43464370320021002800FFF79EFF43
:102DF000040039002800FFF7D9FF02002100280055
:102E0000FFF794FF0400D7E7F0B5C64600B504000D
:102E10000D001700002927D0FFF73AFF4378002B59
:102E200028D18378002B2BD101782000FFF7BEFF3B
:102E300006008046002F0AD0E17B002926D1A37B23
:102E4000002B03D1E37B002B25D1A573E57343460B
:102E5000002B26D129002000FFF71AFF0023437022
:102E6000300080BCB846F0BD114B124A12483821E0
:102E700000F060FA114B0F4A0F483A2100F05AFA5D
:102E80000F4B0C4A0C483B2100F054FA2000FFF78E
:102E9000FFFE4570D3E70B4B064A0748422100F07E
:102EA00049FA31002000FFF7F3FE00238370D1E7D9
:102EB000709404103895041078940410B49404109D
:102EC000DC9404109491041070B504000A00457B52
:102ED0002900FFF799FF6073280070BD70B50600E8
:102EE0000C1E40D0437B8B4207D0FFF7D1FE05007C
:102EF0008178002906D1002036E00121FFF7E4FFA8
:102F0000012031E03000FFF7C3FE0178A1420DD06F
:102F10003000FFF7BDFE4178A1420AD00029F7D169
:102F2000124B134A13486B3100F004FA6B780370AC
:102F300001E06B7843700023AB706B7001222100BD
:102F40003000FFF761FF0200717B814205D0300045
:102F5000FFF7ECFE7073012006E0074B044A0548BA
:102F6000712100F0E7F9002070BDC046388E0410D2
:102F7000209504107894041000950410F8B5DE46EE
:102F800057464E464546E0B506000F0015000A9A22
:102F9000934250D31A0E92461B0298460A9A002377
:102FA0004046514601F056FC81467400A419A40025
:102FB0002F4B9C4664446368834200D26060331F99
:102FC000DBB29B46012B3CD9C0239B0123438022CB
:102FD00012011A60274BB200D158002907D0586956
:102FE00001F0FAFB013043001B18033BFDD26D01D9
:102FF00023685D40E0222A4080235B0123431A605E
:103000005A46012A28D980239B012343802212019A
:103010001A604B4663604A4600234046514601F021
:1030200019FC144BB60098510120F0BCBB46B246C7
:10303000A946A046F8BD104B104A1148332100F0B4
:1030400079F9012FC0D1C0239B01234303221A60C9
:10305000A368DB07FCD5CAE72168794003220A4050
:103060001A60A3680125BD401D42FAD0CBE7C046D7
:10307000008000404C4500206C950410C49504105D
:103080008095041030B583B00C2000F011F9FEF7E4
:1030900085FB00280DD0002304E02E4A99002E481D
:1030A00088500133092BF8D92A4B2C4A5A6203B0B5
:1030B00030BD2B4B00229A6700F002F9294B012208
:1030C0001A60274B5B6C012BFBD1274B03221A6044
:1030D000234B9B6B012BFBD1013300930433234A19
:1030E0000121234800F054F805230093214A0121CF
:1030F000214800F04DF8214B0093002202210420CA
:10310000FFF73CFF1E4D00952B00002201210520FA
:10311000FFF734FF104C0094230000220021072009
:10312000FFF72CFF00942300002200210820FFF766
:1031300025FF0A4B00932300002200210920FFF7FE
:103140001DFF00952B00002200210620FFF716FF2F
:10315000ADE7C0464C450020006CDC021BB7000008
:10316000008000403CB0004030B00040002F685963
:1031700000800240008C864700C00240001BB70060
:1031800040597307014B8000C05870474C450020E0
:10319000F0B5C64600B504000E0017001D00374804
:1031A00001F01AFB8046364BFA18364B9A4239D852
:1031B0000100380001F010FB0200103A98235B0078
:1031C0009A4235D86B1E062B38D8069B013B062B3E
:1031D00034D83F09474537D32D04069B1B031D43B5
:1031E0002368002B36DB284B9C4244D080235B01B4
:1031F000264A1360264A1360264A926819009143B2
:10320000FAD12660A060221DC0239B011343212216
:103210001A602268002AFCDAE56008221A6080BC85
:10322000B846F0BD1C4B1D4A1D48112100F082F824
:103230001C4B1A4A1A48192100F07CF81A4B174AFD
:1032400017481C2100F076F8184B144A1448232123
:1032500000F070F822683F231340B342C3D1A36843
:103260001B051B0D8342BED1E368EE22D202134040
:10327000AB42B8D1D3E780239B01B9E7001BB7006D
:1032800080E84BD380F8A93200C0024000E0004043
:1032900000F0004000C00040D4950410F8960410DF
:1032A000349604107496041090960410DC96041062
:1032B00080239B000343014AD3627047008005408E
:1032C000064BAA2212011A602F22DA60044B054A2B
:1032D0001A60024B5B68002BFBDA7047004002402B
:1032E0000060024000B0FA0000BEFDE703000A4A99
:1032F0001268002A08D0084A1068C318074A9A4280
:1033000006D3054A13607047034A05491160F2E786
:1033100001204042F7E7C0461C4600200000042080
:10332000944800200020704701204042704710B5AB
:10333000FFF7DAFF30B583B00D001900002A0BD07B
:10334000074B084C019200932B000200200003F071
:1033500011FA0120FFF7C8FF034B1A00F1E7C0463E
:10336000049704101497041048A9041070B52B4B4F
:103370002B4A1A602B4B2C4A1A602C4B9A682A4B0A
:103380009343FAD12A4C01E008CC9847294B9C4240
:10339000FAD3FFF777FE234B274A1A60234B9B682B
:1033A000DB43DB01FAD1254B40229A675A671A6743
:1033B000DA66234C09E0234B234A24488721FFF790
:1033C000B9FF2000FEF7F0FD0834214B9C4209D2E2
:1033D0002368002BF5D0012BEDD12000FEF7F1FD85
:1033E0000834F2E71B4DA9681B4CC022200002F0F4
:1033F000BBFFAC60EFF30583002B00D000BEFEF7EF
:103400002FFAFEF755FDFFF703F9144C01E008CC45
:103410009847134B9C42FAD370BDC04600E0004071
:10342000BFCDFBFE00F00040FE7F3C0000C000402E
:10343000C0230020D0230020FFFFFF0100F0014047
:10344000A023002044970410D09704106497041020
:10345000C023002000ED00E000000020D023002069
:10346000F823002010B5002B02DB0260436010BD82
:10347000024B034A03483F21FFF75CFFD88E04103C
:10348000B8970410F48E041010B582B00400FFF752
:10349000E5FA02000B006846FFF7E4FF009A019B83
:1034A00022606360200002B010BD0000D0B582B081
:1034B000041E18D06846FFF7E7FF009E019F0B4BE4
:1034C0001A685B68B61A9F41094A00233000390028
:1034D00001F0A8F920606160054A0023300039003E
:1034E00001F0A0F9A260002002B0D0BDB0270020FA
:1034F00040420F000FB400B583B0084803F00AF94A
:10350000049B002B07D005A90191180003F012F9C4
:10351000034803F0FFF80120FFF7E6FEA897041028
:10352000E4A504109A4200D288547047704710B541
:10353000002802D00B684968984710BD01000020A0
:1035400007E083001B185B00501C08601078C0184F
:1035500030380A681378303BDBB2092BF1D9704759
:10356000F0B5DE4657464E464546E0B583B0934635
:103570001F000C9B9A460D9C0E9B99460F9B9B0728
:1035800003D0B8460F00060022E00192A346884609
:103590004E46B9460700B44207D2551C4B46414639
:1035A0002020B84701342A00F5E73D004F465C462D
:1035B000019B9B46B1464646B84637002E0007E0C1
:1035C000013C551C5346185D43463900B0472A005C
:1035D000002CF5D135003E0047460F9B9B0707D4D2
:1035E000100003B0F0BCBB46B246A946A046F0BDF1
:1035F000B0464E46B9462F005D46531BB342EFD24C
:10360000541C4B4641462020B8472200F5E7F0B550
:10361000CE46474680B585B0944698460C9D0D9C95
:103620000EAB1B789946109A119B129EB7071CD4BB
:10363000002B0CD0F7070AD54F46002F02D10C37CC
:10364000374204D0013B02E030272F550134944229
:1036500001D21F2CF8D9F70707D59C4205D21F2CA1
:1036600003D830272F550134F5E7F70612D5770533
:1036700005D4002C03D0944221D09C421FD00F9A35
:10368000102A32D00F9A022A37D01F2C0AD83022A3
:103690002A5501341F2C05D84A46002A33D02D2242
:1036A0002A550134039602930194009543466246DD
:1036B000FFF756FF05B0C0BCB946B046F0BD621E6C
:1036C000012C10D00F9F102F0BD014000F9A102A2E
:1036D000D8D1B206D6D51F2CD4D858222A550134B9
:1036E000D3E7023CCBE71400C9E7B206EED41F2CA7
:1036F000ECD878222A550134C7E71F2CD2D8603283
:103700002A550134C1E7720703D52B222A5501340B
:10371000C8E73207C6D520222A550134C2E7F0B5E2
:10372000DE4657464E464546E0B593B081468A464A
:10373000089209931CAB10CB1B789B461E9D219BC6
:103740009846002C03D1102342469A43904680238A
:10375000DB0046461E4042461A4212D0002C22D0C0
:1037600000260EE03033D9B2771C0AAB99552900F8
:10377000200001F031F8AC4216D31F2F14D83E00C0
:1037800004002900200001F027F8CBB2092BE9D969
:103790004246920605D54121C918C9B20A39C9B2B3
:1037A000E2E76121F8E7270043460693209B059353
:1037B0001F9B049303955B46029301970AAB00930A
:1037C000099B089A51464846FFF721FF13B0F0BC09
:1037D000BB46B246A946A046F0BDF0B5DE46574608
:1037E0004E464546E0B597B00A900B910C929A462A
:1037F000209B9946219F22AA13789B46249B0993DC
:10380000259C289B98464A463A4302D1103293435E
:1038100098468022D20045461540434613420AD0BE
:103820004A463A4341D000252E0053460D934D465B
:10383000099B9A461BE02E0053460D934D46099B6B
:103840009A4614E03033DAB2731C99460EAB9A559F
:10385000524623002800390000F0FCFFBC4226D865
:1038600019D04B461F2B1CD84E4605000F00524660
:1038700023002800390000F0EDFFD3B2092BE1D975
:103880004246920605D54122D218D2B20A3AD2B2A5
:10389000DAE76122F8E7AA45E3D94E460D9B9A463E
:1038A00008E04E460D9B9A4604E0002602E04E4694
:1038B0000D9B9A4643460693279B0593269B0493AC
:1038C000099B03935B46029301960EAB009353460C
:1038D0000C9A0B990A98FFF79AFE17B0F0BCBB46FA
:1038E000B246A946A046F0BDF0B5DE4657464E4664
:1038F0004546E0B591B0804689460C929A461A9C9E
:103900001B9D22002B002000290001F036FA002820
:1039100000D0ECE001225242D44B2000290001F0FB
:1039200027FA002800D0E2E001225242D04B2000CA
:10393000290001F007FA002800D0D8E00022002377
:103940002000290001F0FEF9002800D0E4E00694F0
:1039500007958023DB001E9A1A400D921E9A1A4288
:1039600001D106231C930698079902000B000892C8
:10397000099303000A00024300D1D9E0080D400575
:10398000400DBC4EB44660440A03120B1E00BA4BF5
:1039900013431F0001F004FAB84AB94B01F087F94C
:1039A000B84AB94B01F05CF9089009910022B74B75
:1039B0003000390001F04BF9B54AB64B01F077F908
:1039C00002000B000898099901F04AF901F000FA89
:1039D000834601F0E5F906000F00AF4AAF4B01F056
:1039E00066F90022AE4B01F03BF901F0F1F90890C5
:1039F000AC4AAD4B3000390001F059F906000F0018
:103A0000089801F0CDF9A94AA94B01F050F902003C
:103A10000B003000390001F01AF906000F00020017
:103A20000B0001F044F90A900B91089BA14A9446BF
:103A3000634400210022089109921B050993002389
:103A4000089332003B003000390001F009F90E9074
:103A50000F9132003B0000208021C90501F0F7F8EA
:103A600006000F000022944B0A980B9901F001F90F
:103A70000022924B01F0F4F802000B000A980B9917
:103A800001F0F7F800228E4B01F0EAF802000B007B
:103A90000A980B9901F0EDF802000B003000390094
:103AA00001F0DEF802000B000E980F9901F0E1F82A
:103AB0000022714B01F0D4F8089A099B01F0F7F845
:103AC00006000F0008960997069A079B01F050F927
:103AD00000282FD001235B429C46E3440022774B11
:103AE0003000390001F0C5F80890099122E01E9BD2
:103AF00004931D9B03931C9B0293009401955346D2
:103B00000C9A4946404600F0FFF811B0F0BCBB46A5
:103B1000B246A946A046F0BD0021002206910792B8
:103B2000069480231B069C46AC446346079310E72B
:103B300000239B465B466333C62B20D804261E9B7E
:103B40001B0528D5089A099B190011430FD05D4A1F
:103B50005D4B0698079901F003F900287AD00022FE
:103B60005A4B0698079901F0EDF8002872D01C9B7B
:103B70005B4506DD5A469B1A013B1C9303E0052674
:103B8000DDE700231C938023DB001E9A1A431E925C
:103B9000002600239B461D9B9E4265D29F1B02234D
:103BA0001E9A1A400A921E9A134202D0002E00D08A
:103BB00000275B46002B07D0089A099B06980799B7
:103BC00001F057F8069007910022002320002900F9
:103BD00001F0B8F8002800D07CE03D4B1E9A13405D
:103BE000049303971C9B0293069B079C00930194EC
:103BF00053460C9A4946404600F086F8002E00D104
:103C000083E71E9B9B0671D54525441C5346020045
:103C100049462800C0475A46D317D2185A400523B0
:103C20000593013E0496002303930A3302935B46F7
:103C3000DB0F019300925346220049464046FFF7AE
:103C40006EFD0A9B002B00D15FE7020047460C9EE9
:103C50001D9D53E01C9B002B9DD00D9B002B9AD0EB
:103C60001C9B013B1C9396E7002798E7FFFFEF7F23
:103C7000FFFFEFFF01FCFFFF0000F03FFB799F50CB
:103C80001344D33FB3C8608B288AC63F0000F83F77
:103C900061436F63A787D23F71A379094F930A40AD
:103CA0000000E03F1655B5BBB16B0240EF39FAFE9C
:103CB000422EE63FFF03000000002C40000024409D
:103CC000000018402D431CEBE2361A3F80842E4141
:103CD000FFF7FFFF069C079D2200290080200006B9
:103CE000844661440B000692079376E765258CE7CE
:103CF000541C534649462020B8472200931BAB4230
:103D0000F6D3100001E7C046F0B5DE4657464E46F2
:103D10004546E0B595B00690079193469946209F99
:103D20001E9A1F9B1000190001F027F8002831D1BE
:103D300001225242BF4B1E981F9901F003F8002840
:103D400037D101225242BC4B1E981F9901F010F846
:103D500000283DD10022B94B1E981F9901F008F8A8
:103D6000002850D10022B64B1E981F9900F0EAFFA0
:103D7000002848D1002200231E981F9900F0E2FF7E
:103D8000002850D100239846229B5B0500D4B6E062
:103D9000002458E0229B0393219B02930323019369
:103DA000A84B00934B465A4607990698FFF7D8FB55
:103DB0000EE1229B0393219B029304230193A24BC8
:103DC00000934B465A4607990698FFF7C9FBFFE058
:103DD0000423229A1A4022990B4210D09B4B002AAE
:103DE0000FD004222299039121990291019200930C
:103DF0004B465A4607990698FFF7B2FBE8E0944B0A
:103E0000EDE70322EEE7229B0493219B03930297A5
:103E10001E9B1F9C009301944B465A460799069897
:103E2000FFF762FDD4E01E9A1F9B0020002100F0E6
:103E30000EFF1E901F9101239846A5E70CAB302280
:103E40001A55013F01341F2C01D8092FF6D81E98AE
:103E50001F9900F0BDFF050000F0A2FF02000B005B
:103E60001E981F9900F0F3FE7A4BFA009B181A680F
:103E70005B680A920B9300F01AFF0890099100F01A
:103E8000CBFF060000F088FF02000B00089809999C
:103E900000F0DDFE0890099100226F4B00F068FFF2
:103EA00000282ED00136300000F076FF02000B0013
:103EB0000A980B9900F04CFF002801D0013500262C
:103EC000002F2CD1280000F06BFF02000B001E9881
:103ED0001F9900F0BCFE06000F0000225E4B00F0B0
:103EE00031FF002846D100225B4B3000390000F042
:103EF0003FFF00283ED1EB073CD501353AE00627CD
:103F000046E70022544B0898099900F01BFF00284F
:103F1000D6D1002E01D0F307D2D50136D0E7AA467C
:103F20001F2C11D8013F0A21300000F055FC651C00
:103F300030310CAB19550A21300000F04DFC092E30
:103F40000ED906002C00EBE755461F2C0CD87B1E23
:103F5000002F09D00CAA302111551F000134F4E7BD
:103F60002B0055461C00F0E71F2C03D80CAB2E226B
:103F70001A5501341F2C10D80A21280000F004FC27
:103F8000661C30310CAB19550A21280000F0FCFBEF
:103F9000051E01D03400EDE734000323229A1340BC
:103FA000012B1CD01F2C06D84346002B32D00CAB63
:103FB0002D221A550134229B0393219B02930194D5
:103FC0000CAB00934B465A4607990698FFF7C8FA80
:103FD00015B0F0BCBB46B246A946A046F0BD219B39
:103FE000002B13D04346002B02D10C3313420FD0C9
:103FF000219B013B2193190003E00CAB30221A55A1
:1040000001348C42CED21F2CF7D9CBE72199F8E7A7
:104010002199F6E7229B5B0704D50CAB2B221A559E
:104020000134C8E7229B1B07C5D50CAB20221A55CB
:104030000134C0E7FFFFEFFFFFFFEF7F65CDCD410C
:1040400065CDCDC1EC970410F0970410E0970410F3
:10405000E8970410989904100000E03FF0B5DE46A0
:1040600057464E464546E0B593B08246884693464D
:104070001193002900D106E300255646119B1878BC
:10408000002800D102E3252809D06C1C5B462A00D9
:104090004146B047119B013311932500EEE70133F0
:1040A0001193002720E001231F43013211920124C4
:1040B00018E002231F4301321192012412E004236D
:1040C0001F430132119201240CE008231F430132E7
:1040D0001192012406E010231F43013211920124A2
:1040E00000E00024002C09D0119A1378203BD9B2AB
:1040F0001029F6D88B00C449CB589F46119B1A78DB
:104100001300303BDBB2092B10D92A2A13D00B94B1
:10411000119B1A782E2A1ED0119A1378683BD9B2B7
:10412000122959D88B00B949CB589F4611A8FFF7DF
:1041300005FA0B90ECE71C9B1A1D1C921B68002BC8
:1041400004DB0B93119B01331193E1E70222174328
:104150005B420B93F6E78022D20017435A1C119260
:104160005A781300303BDBB2092B0BD92A2AD3D162
:104170001C9B1A1D1C921C68002C08DB119B013330
:104180001193C9E711A8FFF7D9F90400C4E7002487
:10419000F4E780235B003B43511C119151786C295B
:1041A00001D01F0018E0C0239B001F430232119270
:1041B00012E080233B43511C11915178682901D0B2
:1041C0001F0009E0C0231F430232119204E0802344
:1041D0005B001F4301321192119B1878672816D893
:1041E000252826D30300253BDAB2422A21D89300A2
:1041F000874AD3589F4680239B001F430132119268
:10420000EAE780235B001F4301321192E4E778283C
:104210000FD869280DD30200693AD2B20123934026
:104220007C4A13420FD11A0600D507E25B0500D580
:1042300094E16C1C5B462A004146B047119B013358
:10424000119325001AE778280AD062283AD06F28FF
:104250003BD058283CD010239F43063B9C4601E0AE
:1042600010239C46582836D0692803D0642801D0F2
:104270000C2297437A0501D50122974369282DD056
:1042800064282BD0BA0500D5A2E0FA0500D5C3E01A
:104290007A0600D4D5E01C9A111D1C911168FF22EA
:1042A0000A4005970B9B04930394634602930023F3
:1042B000019300925B462A0041463000FFF72FFA37
:1042C00005002AE002239C46CCE708239C46C9E768
:1042D00010239C46C6E720221743C5E7BA0520D421
:1042E000FA0550D47A0666D51C9A111D1C911168E6
:1042F000FF220A40D0171118414005970B9B0493E9
:10430000039463460293D20F019200915B462A0008
:1043100041463000FFF703FA0500119B013311936A
:10432000ACE61C9A073207218A43110008311C9120
:10433000116853689946DB170C930D930C9A0D9BEB
:10434000100048400E904A4653400F930E980F9924
:104350000C9A0D9B801A99410E900F9108970B9B18
:104360000793069463460493002305934B46DA0FA4
:104370000292009001915B462A0041463000FFF70F
:104380002CFA0500C9E71C9A111D1C911268D01760
:104390001118414005970B9B0493039463460293C5
:1043A000D20F019200915B462A0041463000FFF790
:1043B000B6F90500B1E73A0605D51C9A111D1C9106
:1043C0000023D25E96E71C9A111D1C91126891E79A
:1043D0001C9A073207218A43110008311C91089763
:1043E0000B9B079306946346049300230593029363
:1043F00053681268009201935B462A0041463000E0
:10440000FFF7EBF9050088E7F89704103C980410D3
:1044100088980410419000001C9A111D1C9105976A
:104420000B9B049303946346029300230193136848
:1044300000935B462A0041463000FFF770F9050003
:104440006BE73A0606D51C9A111D1C9112681204DE
:10445000120C26E71C9A111D1C91126821E74628B0
:1044600019D01C9B0733072293431A0008321C9271
:1044700004970B9A039202941A685B680092019366
:104480005B462A0041463000FFF73EFC0500119BC9
:1044900001331193F2E520231F43E2E7672801D09F
:1044A000472802D180231B011F43452801D04728FC
:1044B00001D120231F431C9B0733072293431A007B
:1044C00008321C9204970B9A039202941A685B6854
:1044D000009201935B462A0041463000FFF704FA40
:1044E0000500119B01331193C8E502231A003A40DD
:1044F00091463B421DD001241C9B1A1D1C926F1C2F
:1045000018785B462A004146B0474B46002B14D131
:10451000119B013311933D00B0E5571C5B464146AA
:104520002020B04723003A005C1C9D42F5D81500BE
:10453000E2E701232A000B9DF6E73A00B1460B9E05
:1045400006E0571C5B4641462020C8472C003A0035
:10455000651CA642F5D817004E46D9E71C9B1A1DCC
:104560001C921B689A46002C25D1012252425346C8
:1045700001E001330A001978002902D0511E002AF7
:10458000F7D152469B1A8022D20039001140894649
:10459000174202D0A34200D9230002221100394061
:1045A00010913A4209D02A00250057469A46330016
:1045B0004E46994621E02200D9E72A004546A0460A
:1045C00006E0541C5B4629002020B0473B00220037
:1045D0005F1C0B999942F4D84446A8463B0025003D
:1045E00057469A4633004E46994606E01D0001376D
:1045F000541C5B464146C84722003878002804D046
:10460000002EF4D06B1E002DF0D1150053464E46FF
:10461000109A002A03D1119B013311932EE50B9FB1
:104620002A0006E0551C5B4641462020B047230087
:104630002A005C1C9F42F5D81500ECE721233B4380
:104640001C9A111D1C91126805930823049303946E
:10465000083302930023019300925B462A004146EF
:104660003000FFF75CF80500119B0133119305E55D
:104670006C1C5B462A0041462520B047119B013344
:1046800011932500FAE40B4B9A46F5E4B2465D45DA
:104690000DD35B465A1E5B4641460020D04728009A
:1046A00013B0F0BCBB46B246A946A046F0BD2A00F6
:1046B000F1E7C0462D3500100EB430B584B00100CE
:1046C00007AC08CC03940122054D00945242280007
:1046D000FFF7C4FC04B030BC08BC03B01847C046A8
:1046E0002535001010B582B0044C009313000A0069
:1046F00001002000FFF7B2FC02B010BD253500100C
:1047000000B585B002900391012104480093130085
:104710004A4202A9FFF7A2FC05B000BD2F350010E8
:1047200001480421014B1847D018002051470010C0
:1047300010B5010018231B8814221088984710BD5B
:1047400010B5010018231B8816221088984710BD49
:10475000F0B5C64600B507000E00002501239846B7
:1047600000E00135B5420AD2AC003C192068FFF7E1
:10477000DFFF20600028F4D100239846F1E740468F
:1047800080BCB846F0BD0000124A936F9B0815D25A
:104790009066D166002905D0FFE7FFE7FFE7516F7C
:1047A000106F704704B580210906C21751400028D8
:1047B00000D0C84343F010FC002104BDF0B5146ED6
:1047C000556E576F166FFFF7E3FF14665566576710
:1047D0001667F0BD000000D0114A936F9B0813D2FA
:1047E00010665166002905D0FFE7FFE7FFE7516F2C
:1047F000106F704704B5002801D00020C04343F07B
:10480000EBFB002104BDC046F0B5146E556E576F2A
:10481000166FFFF7E5FF1466556657671667F0BD1C
:10482000000000D094464A4A926F9208624601D234
:1048300028E0C046F0B5464E346E756E776F366F21
:1048400000F020F89446424A14665566576716678A
:104850006246F0BD94463E4A926F9208624601D28B
:1048600054E0C046F0B53A4E346E756E776F366FD1
:1048700000F04CF89446364A14665566576716673A
:104880006246F0BD002B24DB11D000293EDA00B5D2
:10489000C943404200D1013100F038F8C9434042D9
:1048A00000D10131DB43524200D1013300BD002A67
:1048B000EBD1002801D1002905D00020C90FC9077C
:1048C00001D1C043410800B543F05EFB0022002344
:1048D00000BD00B500290ADBDB43524200D10133A1
:1048E00000F014F8C943404200D1013100BDC94372
:1048F000404200D10131DB43524200D1013300F08C
:1049000005F8DB43524200D1013300BD002923D119
:10491000002B18D1002A0CD0BC460D4F38667A66A1
:1049200000210023FFE7FFE7FFE77A6F386F674654
:104930007047002801D00748010000B543F024FB70
:104940000022002300BD02000B0000200021704760
:10495000000000D0FFFFFFFF002B00D0BFE0130CD2
:1049600028D1002AE7D080B4114F39667A66FFE774
:10497000FFE730B4040C7B6F396F1B0423433B66A5
:104980007A66FFE7FFE7FFE7C04684B27B6F3D6FC3
:104990001B0423433B667A66FFE7FFE7C04600231C
:1049A0002C042D0C7A6F386F00196941B0BC704728
:1049B000000000D0F0B594460025140E01D112027B
:1049C0000835140F01D112010435940F01D1920062
:1049D0000235D40F01D152000135D40B0134254FDB
:1049E0007C66254C3C660E0C93B2FFE7FFE7FFE7C1
:1049F0003C6F6643360C7703BE467343DF0B5B04A4
:104A0000C01AB941130C7343DB18C91ACE086643A8
:104A1000360CB64493B273431F0F1B01C01AB94141
:104A2000130C73431F0B1B05C01AB941860D8F026F
:104A30003E436643360C092D24DB520A7243801A2A
:104A40007703460A6643360C16235B1BDE40DF40C5
:104A5000BF1964466643821B704604350633010065
:104A6000D940A840C01900D30131A24206D2002388
:104A7000F0BD0000000000D0FFFFFFFF121B01305F
:104A8000F3D3F1E709277F1BFE406446A2B27243CD
:104A9000801A00D20139220C7243130C1204821ABC
:104AA00099410B007046043513370100F940A840C6
:104AB000801900D30131002B02D1A2420AD2F0BDED
:104AC000013000D30131121BFAD2013BF8D1A242CE
:104AD00000D2F0BD013000D30131121BF7E7F0B571
:104AE0001C0C00D080E00CB400251C0A04D11B0271
:104AF000160E3343120208351C0B04D11B01160F8E
:104B00003343120104359C0B04D19B00960F3343B1
:104B100092000235DC0B02D192185B4101351C007A
:104B2000971864410134464F7C66464C3C660E0C37
:104B3000FFE7FFE7FFE7C0463C6F6643360C7703AD
:104B4000BE4697B27743C01B00D20139C01B00D2CA
:104B500001399FB27743C91BC91B170C77437E04E9
:104B6000FF0B801BB941CE086643360C0C2D33DB9E
:104B7000B644120B1F053A431B0B97B27743C01B79
:104B800000D201399FB27743C91B170C77433E040B
:104B90003F0C801BB941860D8F023E436643292797
:104BA0007F1BFE400C3D7746AF40BF1930BCA2B220
:104BB000ABB272437343801A9941220C7243130CB7
:104BC0001204801A994102000B000137001BA94111
:104BD000F9D2781E0021F0BD0C277F1BFE407746DE
:104BE0007F0BAF40FF19E0E700245D1C07D0144F96
:104BF0007D663966FFE7FFE7FFE7FFE73C6F95B2A9
:104C00009EB265436643401BB141150C1E0C6543C3
:104C1000664336042F0C3E432D04401BB14199429C
:104C200004D202000B0020000021F0BD01D190420F
:104C3000F7D3801A994101349942F2D3F6E7000084
:104C4000000000D0FFFFFFFF48404140484018B43B
:104C50001B4B5B68FC46019308BD04DFD756001070
:104C600018B4174B1B68FC46019308BD00DFE156E2
:104C700000109446134A926F920809D2624618B403
:104C80000F4BDB68FC46019308BD0CDF99590010FF
:104C90000C4AF0B5146E556E576F166F6246FFF7EB
:104CA000EEFF084A1466556657671667F0BD18B4DC
:104CB000034B9B68FC46019308BD08DF3D5800107C
:104CC00060460020000000D0FFB5504042405040F8
:104CD00059404B40594000E0FFB5154F4C00640D62
:104CE00003D0BC4204D10C0314D80020090D0905DF
:104CF0005C00640D03D0BC4204D11C030AD800221E
:104D00001B0D1B0501264B4009D44B4003D58B429C
:104D100000D18242FFBD9942FCD19042FFBD0B43BE
:104D2000DB1803431343F5D0C9434918FFBD000006
:104D3000FF07000000B5FFF7CFFF01D0002000BD46
:104D4000012000BD00B5FFF7C7FF804100BDC04690
:104D500000B5FFF7C1FF01D9002000BD012000BD53
:104D600000B5FFF7B1FF01D9002000BD012000BD53
:104D700000B5FFF7A9FF804100BD012040054A00B2
:104D8000121804D85A00121801D8002070470120C8
:104D900070470020704700000021002805D17047AF
:104DA000C1174840401AFAD0C90713B5064B1B6813
:104DB00098470CBC441CA2401005120B0349091B68
:104DC00009051943114310BD604700201F0400006E
:104DD00010B54C00620D8023D218DB00D21A5B059F
:104DE0007E2A10DD9E3A13DACC17090349081943CD
:104DF0005242D140640001341532202A05DAD040F5
:104E00000843604310BD002010BD0846604310BD3C
:104E1000C80FC018013810BD18B4044B5B6AFC46BB
:104E2000019308BD24DF495B0010000060460020AC
:104E300018B4044BDB6DFC46019308BD5CDF555C88
:104E40000010000060460020C94211D300B549009F
:104E50004908002200F018F8002904D4002240423A
:104E60008A41114600BD80210906002000BD0000D6
:104E700018B4044BDB6EFC46019308BD6CDF575B36
:104E8000001000006046002018B4044B9B6FFC46E5
:104E9000019308BD78DF735B0010000060460020BE
:104EA00018B4044BDB6FFC46019308BD7CDFE15B6B
:104EB000001000006046002018B4044BDB6CFC4678
:104EC000019308BD4CDF8D5D00100000604600209E
:104ED00018B4044B1B6DFC46019308BD50DF295EDE
:104EE000001000006046002070B513231C78012CD0
:104EF00012D0012C12DC214B214A93642148FFF788
:104F000017FC214B186070BD1C491D4A9800815048
:104F100001331F2BF8D9ECE70023FAE71B48FFF712
:104F20000FFC05001A48FFF70BFC023803789B00C2
:104F30007F2B09DD12488022290001F015FA022C8E
:104F400008D0022CDADCD6E7124B134A1348322180
:104F5000FEF7F0F9124B1A88B5231B029A4209D1C9
:104F6000104B1A88104B9A4204D1104B1A88104BE0
:104F70009A42E6D00020FEF7BDFAC0469D560010CA
:104F8000604600204C33000060470020534400007E
:104F900053460000E8990410889A04103C9A0410C3
:104FA00054380000D8380000494600009C38000002
:104FB0005946000030B50B0D5B055C0D002B14D07D
:104FC0000D4B9C4211D01419002C09DD0B4B9C4257
:104FD0000CDDC90FC907002409480843050002E099
:104FE0000024C90FCD072000290030BD002415057D
:104FF00024184D41F7E7C046FF070000FE070000F8
:105000000000F07F30B50B0D5B055A0D002B1FD053
:10501000134BD2181ED434239B1A002B1CDD1C000A
:10502000203C0CD401225242A240012464429C4004
:105030000300A34391430B4310D1012009E0202436
:10504000E41A012252421500E5409A402A43ECE757
:10505000012030BD0020FCE70120FAE70020F8E73E
:1050600001FCFFFF30B50B0D5B055B0D1B4A9B1868
:105070002CD43422D31A2BD41C00203C16D4353A1D
:10508000A240012464429C400500A5432C000D0071
:1050900095432A0022431DD1342B1DD01A00203AFB
:1050A0000DD40800D0400123184030BD2024E41A5C
:1050B000012252421500E5409A402A43E1E72022AE
:1050C000D21A0C009440D8402043ECE70020ECE7D3
:1050D0000020EAE70020E8E70120E6E701FCFFFF07
:1050E00002000B00090D4905480D002907D00549AC
:1050F000884205D01803000B1043434258417047C3
:105100000020FCE7FF07000070B504000D0016004A
:10511000012A0ED0D20F92195210FFF7F5FF0200AC
:105120000B00FFF7C4FDF60703D522002B00FFF7A5
:10513000BEFD70BD10B5141E03DB2200FFF7E4FFB7
:1051400010BD02000B0000200249FFF792FD6442EF
:10515000F3E7C0460000F03FF0B5D6464F4646465E
:10516000C0B588B014001D000E0D7605760D674B96
:10517000F718674A921BFFF71DFFFFF7A9FE654A64
:10518000654BFFF776FD0022644B00900191FFF71D
:10519000EFFD002809D00022614B00980199FFF72C
:1051A00056FD009001915F4BF718002F11D000229F
:1051B0005D4B20002900FFF7D3FD002815D0002FFC
:1051C00010DB0020594908B0E0BCBA46B146A846F9
:1051D000F0BD22002B0000980199FFF768FD00F058
:1051E00065F9F0E700200021EDE70022504B200098
:1051F0002900FFF7ADFD002807D0002F02DB0020BB
:105200000021E0E700204949DDE72000290000F007
:1052100001F90490059102000B0020002900FFF71E
:1052200016FD03000C001A220293039400F0EEF81E
:1052300000F0F0F81A225242FFF7BCFE04000D0005
:1052400002000B0002980399FFF701FD06900791F9
:1052500004980599FFF7BCFD8146010079438A4611
:105260003800FFF79DFD22002B0004900591FFF709
:105270001EFD06000F0000F0CDF804000D00FFF742
:10528000A7FD8046D04422002B0030003900FFF7F4
:10529000DEFC04000D00069A079B04980599FFF7B1
:1052A00006FD02000B0020002900FFF7D9FC049046
:1052B00005914846FFF774FD009A019BFFF7F7FC44
:1052C00004000D0000F0A6F806000F00FFF780FDB7
:1052D000804432003B0020002900FFF7B8FC049A0C
:1052E000059BFFF7BDFC04000D00029A039B00988C
:1052F0000199FFF7DCFC22002B00FFF7B1FC00F066
:10530000D5F84246FFF756FE5DE7C04601FCFFFFB9
:10531000FF030000EF39FAFE422EE63F0000E03FB7
:105320000000F03F02FCFFFF0000B0400000F07FF3
:105330000000B0C0F0B5C64600B582B004000D0054
:1053400016001F00019000291DDA10001900FFF758
:1053500089FE00280ED0200080231B06E9183200A9
:105360003B00FFF7E7FF80242406091902B080BC48
:10537000B846F0BD019880231B06E91832003B00B7
:10538000FFF7D8FFF2E710001900FFF721FD804674
:1053900020002900FFF7A4FE00280CD14346002B73
:1053A00028D02033402B1FD932003B002000290099
:1053B000FFF7D2FEDAE72A0D5205520D0F4B9C463D
:1053C000624480231B01984505DA0D4B984504DAA9
:1053D0000B4B984601E00B4B984643465A4300203E
:1053E0000949FFF7E7FDC1E7424620002900FFF722
:1053F000A1FEBBE700200449B8E7C04601FCFFFF5F
:1054000000F8FFFFFF0700000000F03F10B5FFF7B6
:10541000D1FD10BD70B50B0D5B055B0D214A9446A7
:1054200063445A1C24DB5A1C28D03422D21A002A86
:105430001DDD3324E41A2500203D26D40126AE408C
:1054400033000125A5402A0012184B412500203DBC
:1054500021D40226AE4031000225A54028000025B7
:1054600044428D411600264030002B40190070BD8B
:105470000022C90FCB0710001900F8E7CB0FDB079C
:105480000020094A1A431100F1E720252D1B0126AF
:10549000EE403300D5E720252D1B0226EE403100DB
:1054A000DAE7C04601FCFFFF0000F03F70B50400E2
:1054B0000D000A0D194B9A4229D00022184BFFF714
:1054C00047FC002826D10022164B20002900FFF7B8
:1054D00047FC002802D0002013491DE020002900CD
:1054E000FFF798FFFFF774FC0600FFF759FC020076
:1054F0000B0020002900FFF7AAFB0C4A0C4BFFF71A
:10550000D6FBFFF7D9FC3200FFF754FD04E0002082
:10551000002101E00020002170BDC046FF0F000007
:105520000000B0C00000B0400000F07FEF39FAFE8C
:10553000422EE63FF8B5CE46474680B506000F003E
:1055400014001D0000224E4BFFF7F4FB002821D170
:105550002B0D98465B055A0D9146002B1AD0002260
:10556000484B30003900FFF7E5FB002802D0464BDE
:1055700099456DD03A0D5305590D002B1DD1002DC5
:105580000EDB20002900FFF76DFD002863D03000FE
:10559000390001E000203A49C0BCB946B046F8BD28
:1055A00020002900FFF75EFD002857D0FB0FDB0726
:1055B0000020364A1A431100EEE7334B9A4213D0CB
:1055C000334B9A4215D0304B984527D0304B9845F5
:1055D0002AD020002900FFF715FD00282AD1002F2E
:1055E0002FDA00202949D7E7002D3ADA00200021E0
:1055F000D2E7002D08DB20002900FFF733FD00284B
:1056000032D000202349C7E720002900FFF72AFDF8
:1056100000282CD0002080210906BDE71E4B9942AE
:1056200028DC00200021B7E71B4B994225DC002035
:105630001649B1E722002B0030003900FFF77AFE4F
:10564000AAE722002B0030003900FFF785FDA3E711
:1056500000200B49A0E7002000219DE700200B4916
:105660009AE70020094997E70020084994E70020BD
:10567000002191E7002005498EE7002000218BE7FB
:105680000000F03F0000F0BFFF0700000000F07FC7
:10569000FF0F00000000F0FFFE03000007B56046AA
:1056A000002800D100BE01880A0A0230DF2AFAD1A0
:1056B000C9B2820804D3028840880004104300E085
:1056C0000068024A5050039007BD00006046002069
:1056D0000FB403BC0CBCF0B50124E407634000E048
:1056E000F0B50C0DCF0F661E3605891B640503D37C
:1056F000C943404200D30131640D03D0661CF60A51
:1057000007D0E41B00207F00791C89078912803CA8
:1057100024031D0DDF0F6E1E36059B1B6D0503D385
:10572000DB43524200D301336D0D03D06E1CF60AE9
:1057300007D0ED1B00227F007B1C9B079B12803D46
:105740002D032F1B661B58D4A446202E46DA203783
:105750001400BC401D00BD40F24033412A43801874
:105760005941CB0F05D0C943C04300226442504188
:10577000514162464D0D28D10D0D07D100281FD093
:10578000241940414941013A0D0DF9D0640006D376
:10579000013000D30131002C01D140084000013A12
:1057A0000BD4941CE40A04D112051144DB071944FC
:1057B000F0BDD907204B194300E0D9070020F0BD08
:1057C0000029DDD1002CDBD1F0BD0132C607400835
:1057D000CD0728434908002EE1D0D9E73C2E29DA2D
:1057E000203E40371400BC4000D00124F240144356
:1057F0001A00BB401C43D317ACE7AC46202F08DA95
:1058000020360400B4400D00B540F840394128432B
:10581000A5E73C2F0CDA203F40360400B44000D00E
:105820000124F84004430800B1400C43C117EAE7E3
:1058300010001900002494E70000F07FF0B50C0D73
:10584000661E3605891BE60A6405640D02D0651CD8
:10585000ED0A04D0002001210905803C2403A44660
:105860001C0D671E3F05DB1BE70A6405640D02D0B3
:10587000651CED0A04D0002201231B05803C240393
:105880007740644497B484B296B27443070C7E4365
:10589000150C6F4380B26843361802D30120000410
:1058A0003F183004350C00197D41844688B29AB205
:1058B00050430C0C62431F0C7C438EB27E43921902
:1058C00002D301263604A4191604170C36186741B2
:1058D00001BC81B29AB25143040C62431B0C5C437D
:1058E00080B25843121802D3012000042418100477
:1058F000130C401863412D185E410020474106BC3F
:1059000088B293B258430C0C6343120C544389B2CF
:1059100051435B1802D301210904641819041A0CBD
:10592000091862416D1856410020474118BCF90220
:10593000720D1143F0026A0D1043ED020A0D03D1FE
:105940006D1940414941013B124E9B1B7600B34209
:105950000ED26D0007D301300026714166463543F3
:1059600001D1400840001B05C918E4072144F0BDDF
:105970000BDA013306D1013004D101314F0D01D0D2
:105980004908F2E7E1070020F0BD013631050020AB
:10599000EBE70000FF030000F0B51C0D671E3F059C
:1059A000DB1BE70A6405640D02D0661CF60A04D00E
:1059B000002201231B05803C2403D0252D06002650
:1059C000F6432E661E096E66CE0FF619B4464900E0
:1059D0004F0D02D07E1CF60A03D000200021403F6C
:1059E0003F033E1BB600B444013F7F05C91B490875
:1059F0002E6F013676089C02950D25437543ED13F5
:105A00007543AD1301356D10F603761B0CB4CC0253
:105A1000450D2C43A2B2B3B25A43270C7B43350C3D
:105A20006F43A4B26C431B1902D3012424043F1911
:105A30001C041D0CA4187D4124196D41009A91B2DB
:105A4000ACB26143170C7C432B0C5F4392B25A43B8
:105A5000A41802D301221204BF182204230C5218E6
:105A60007B41019C6C431B19520ED9010A4344012E
:105A7000A01A81B2B2B2514303145A43360C734395
:105A800087B27743D617D21900277E4136049B1977
:105A90001704160C7F185E417316ED18F3010026EB
:105AA00080337541A90F06D16400690AE8055B0AD5
:105AB000184309D22FE00422944480337541A90A87
:105AC000A8059B0A184326D3404149412404009A63
:105AD000019B0D005543641B4343E41A95B286B203
