:020000041000EA
:1000000000B5324B212058609868022188439860DF
:10001000D860186158612E4B002199600221596106
:100020000121F02299502B49196001219960352056
:1000300000F044F80222904214D00621196600F024
:1000400034F8196E01211966002018661A6600F04E
:100050002CF8196E196E196E052000F02FF8012189
:100060000842F9D1002199601B49196000215960AB
:100070001A491B48016001219960EB211966A021F2
:10008000196600F012F800219960164914480160C1
:100090000121996001BC002800D000471248134993
:1000A000086003C880F30888084703B5996A0420EC
:1000B0000142FBD001200142F8D103BD02B5186610
:1000C0001866FFF7F2FF186E186E02BD00000240BE
:1000D000000000180000070000035F00212200005C
:1000E000F4000018222000A00001001008ED00E03C
:1000F00000000000000000000000000074B24E7A12
:1001000000200420F7010010C3010010C5010010F9
:10011000C1010010C1010010C1010010C101001097
:10012000C1010010C1010010C1010010C701001081
:10013000C1010010C1010010C9010010CB01001065
:10014000CD010010CD010010CD010010CD01001037
:10015000CD010010CD010010CD010010CD01001027
:10016000CD010010CD010010CD010010CD01001017
:10017000CD010010CD010010CD010010CD01001007
:10018000CD010010CD010010CD010010CD010010F7
:10019000CD010010CD010010CD010010CD010010E7
:1001A000CD010010CD010010CD010010CD010010D7
:1001B000CD010010CD010010CD010010CD010010C7
:1001C00000BE00BE00BE00BE00BE00BEEFF3058054
:1001D000103800BEF2EB88712CB7051048B7051037
:1001E0003402001090A31AE700201F49086006C8D7
:1001F00081F3088810471D48006800282FD10DA4FE
:100200000ECC002902D000F012F8F9E71849194A7B
:10021000002000E001C19142FCD1174988471749ED
:1002200088471749884700BEFDE701C901C29A42C5
:10023000FBD3704748B70510C00000205C240020A5
:10024000E4DA05100000042000000420E4DA0510C0
:10025000001004200010042000000000704709482E
:1002600004F0D8FB0047000008ED00E0000000D0DB
:100270006024002020490020F536001019150010D8
:10028000B33600105756000006005250ABB360530F
:1002900078E1041006005250861C030288E1041025
:1002A000060052505422A29D98E1041005005250BD
:1002B000DE65F468E4DA0510F8B5C04610B5064C02
:1002C0002378002B07D1054B002B02D0044800E017
:1002D00000BF0123237010BDD02D002000000000BE
:1002E00030C50410044B10B5002B03D0034904485B
:1002F00000E000BF10BDC04600000000D42D00206B
:1003000030C5041010B51C00431A0298001B584356
:10031000511A04F0ABFB001910BD000000B583B00A
:1003200068460DF09DFF044A00230098019904F0EF
:10033000EBFB03B000BDC04640420F0030B587B0B4
:100340000421182001F04CFA0421192001F048FA88
:10035000184CA4231025E550E550174B1D601D6077
:100360001649042001F0B4FB0121042001F0A0FB98
:1003700000230393049305930495114A0592236582
:10038000A365E365059A01922266049A019262656B
:100390000121039A0A4322652365A365E365059B52
:1003A00001932366049B6365039B1943216507B092
:1003B00030BDC04600000540A8200540950400104F
:1003C000FFFF0000F0B5C64600B507000E0015009F
:1003D00098461100284804F071FB040B29032648B5
:1003E00004F06CFB4B1E994164180F2C00D81024AC
:1003F0002100224804F062FB290004F05FFB451E47
:10040000280006F05CF9414606F001F906F07EF995
:1004100000221B4B04F09FFD04F070FE23090F2106
:100420002140FF241C4024010C43BB00DA19920038
:1004300014498C46624454602904090C116182B24B
:10044000DB199B0010498C466344002E0FD010210D
:100450008A40002E0DD00D4819684A400240802184
:1004600049010B431A60280080BCB846F0BD31003A
:10047000EEE70748F0E7C046405973070094357728
:1004800000005940000005400C0005400000FFFF3F
:10049000FFFF0000F0B5CE4600B584B0754AA42336
:1004A0001021D150D150744B1B78002B00D08BE021
:1004B000724B1B78002B1CD0714B1B78DBB2172BB7
:1004C0000AD96F4B1B78DBB2532B05D86D4B1B78C9
:1004D0005BB2002B00DB85E06B490B681B041B0C37
:1004E0006A4A13600B681B0C1B041360634B0022E9
:1004F0001A70674B1B78002B62D0664B1A88664BCC
:100500001B889BB29A4200D1AAE0644B188880B243
:10051000634E11250095002332000021FFF7F2FE03
:10052000FF24204040005F4BC75A5B4B9946188818
:1005300080B204F0A7FD5C4A5C4B04F02AFD002267
:100540005B4B04F008FD5B4A5B4B04F0FBFC04F0E2
:1005500019FE03904B46188880B2009500233200A4
:100560000021FFF7CFFE0440A200544BD658039D54
:10057000291C301C06F092F8002800D12E1CA40083
:100580004F4BE458311C201C06F07AF8002800D1AB
:10059000341C231C3A0000210420FFF713FF231C06
:1005A0003A0001210420FFF70DFF3C4B1A88394B1C
:1005B0001A80394B1A88434B1A80354B00221A7027
:1005C00004B080BCB946F0BD2F490B681B041B0C5E
:1005D0002E4A13600B681B0C1B041360264B002271
:1005E0001A7065E7264B1878C0B206F068F806F076
:1005F0008DF80022344B04F09CFC0022334B04F0B5
:10060000AAFC02000B0000208021C90505F058F962
:1006100000222F4B04F0BDFC04F070FD0400194BC8
:100620001878C0B204F02EFD1F4A204B04F0B1FC34
:100630000022284B04F08FFC1E4A1F4B04F082FC62
:1006400004F0A0FD051C031C220000210420FFF77C
:10065000B9FE2B1C220001210420FFF7B3FE45E761
:10066000184B1A880D4B1B889BB29A4200D04CE75E
:100670009BE7C046000005401C4900201B490020A4
:100680001A4900201F4900205C0005405C1005400D
:100690001D490020104900200E4900200C4900206F
:1006A000FF0F000060CF0410CDCCCCCCCCCC1340DD
:1006B00000FEAF409A9999999999A93FCCCF04101F
:1006C00084CF04101249002000405140000028400F
:1006D00000807B4000C05F40034B01221A70034B37
:1006E0001870034B197070471B4900201A490020ED
:1006F0001F490020014B01221A7070471C4900203D
:10070000034B01221A70034B1880034B198070476A
:100710001D4900200E4900200C49002000230E4AEC
:1007200013700E4A13700E4A13700E4A13700E4A5D
:1007300013700E4A13800E4A13800E4A13800E4A1D
:1007400013800E490B681B041B0C0D4A13600B68C9
:100750001B0C1B04136070471C4900201B49002020
:100760001D4900201A4900201F4900200E49002081
:100770000C49002012490020104900205C0005406F
:100780005C10054010B50BF0CBF910BD10B504009E
:1007900008300122044909F0CBF82070002801D06C
:1007A000002010BD0120FCE7B4CA041010B50400FD
:1007B0009C239B00C018054909F0FBFE207000280F
:1007C00001D0002010BD0120FCE7C046B8CA0410CB
:1007D000F0B5DE4657464E464546E0B583B00400C8
:1007E0008A460192002398469C239B00E5185833C3
:1007F000E6183100280009F05AFF207000280CD1BB
:100800002A4BE35C002B08D0B5239B00E35CDB069E
:10081000EAD401239C46E044E6E7012343449B4697
:10082000980006F02DF8071E5346186027D0204880
:100830003FF02AFB38600021280009F038FF01272B
:10084000B84525DB3100280009F031FF2070002871
:100850001ED1164BE35C002B1AD0B5239B00E35C42
:10086000DB06EDD4BB0052461268914699440F4B0B
:10087000E0183FF009FB4B4618600137E0E728001D
:1008800009F000FF00220B49100009F051F805E0C3
:10089000019B5A461A60280009F0F4FE03B0F0BC30
:1008A000BB46B246A946A046F0BDC046E2020000E3
:1008B000BCCA0410B4CA0410024A835C01214B4034
:1008C000835470475D08000070B504001500FA23DA
:1008D0009B00C6180122300009F05AF82070002849
:1008E0000CD1002306222900300009F004FAAA885E
:1008F000054BE252300009F0E5FB70BD00220349D0
:10090000002009F015F8F8E74C060000B4CA0410FE
:10091000F0B5D6464F464646C0B582B080469246B0
:100920009946FA25AD0045440122280009F030F827
:1009300043461870002806D106220023280009F03B
:10094000D8FB002418E000221E49002008F0F0FF28
:1009500029E00023042201A9280009F0CCF984230E
:10096000DB0043441A685B68019E002792197B41B3
:10097000280009F0BEFB01344C45EAD300230422D1
:100980005146280009F0B7F9042005F079FF011E4F
:10099000534658600DD01A680023280009F0ABF9BF
:1009A000280009F08FFB02B0E0BCBA46B146A84669
:1009B000F0BD280009F086FB00220249100008F073
:1009C000B7FFF0E7B4CA04104BB2002B01DA0348BA
:1009D00070479531FF3189000858F9E7C4CA0410FF
:1009E00010B50C1E07D04868002804D005F086FF1B
:1009F00000236360236010BD70B50400FA239B00E0
:100A0000C01809F05FFB9C239B00E01809F03AFE38
:100A1000064D00222900002008F08AFF200008303F
:100A20000122290008F084FF70BDC046B4CA04103A
:100A300010B50023064A8354064A8354064A83505D
:100A4000064A8350FFF7D8FFFFF768FE10BDC04687
:100A50005C0800005D080000580800005408000011
:100A600010B50300C922D20080584843044A9B5A5B
:100A70005A01D21A9100C918C90004F01FF810BD1C
:100A80004C060000F8B5DE4657464E464546E0B5F2
:100A9000070088464D68002639E06A789246EA1CCD
:100AA0009346AD78261D902B17D1002D15D05146B9
:100AB0003800FFF789FF414BF850414BFD5004E0EF
:100AC000FFF718FE0A2002F027F83E4BFB5C002BD4
:100AD000F6D1484602F020F814E051463800FFF7FE
:100AE00073FF364BF850364BFD50364BFB5C002BFA
:100AF00005D0FFF7FFFD0A2002F00EF8F5E74846A3
:100B000002F00AF829005046FFF7E6FD5D4643462D
:100B10001B68B34246D92C4ABA5C002A42D0002155
:100B20002B78013534000136C9017F221A40114368
:100B30005BB2002BF4DB3800FFF792FF81462A7886
:100B40000F23110099430B009029A6D08029A4D02F
:100B5000FF2A06D0C0291FD0D0291DD00335261D5D
:100B60001CE06B78EA1CAE780434512B05D0951943
:100B70003619484601F0D0FFC9E7032EF7D1EB78CC
:100B80001B04297909020B4369790B43C921C90068
:100B90007B5095193619ECE70235E61C484601F002
:100BA000BBFFB4E7B34202D8074B0022FA54F0BCB3
:100BB000BB46B246A946A046F8BDC0465408000050
:100BC000580800005D0800005C08000010B584B003
:100BD000204A214BD35C002B0FD11E4A1E4BD35C05
:100BE000002BF5D11D4A5833D35C002BF0D1FFF711
:100BF00081FD012001F090FFEAE7FFF78FFD174B21
:100C0000DA6C5B6D9B00D1586A461248FFF75CFEB8
:100C10006B465B88002B08D1FFF780FD0D48FFF77E
:100C200007FF642001F078FFD7E70C4BDA6C5B6DAF
:100C30009B00D158074C002302AA2000FFF768FE52
:100C400002A92000FFF71EFF02A92000FFF7C8FE3F
:100C5000E2E7C046702500205C0800004046002006
:100C600070B5A0B0002304E09C0000256E46A5519D
:100C700001331F2BF8DD0023934207DA9D002C5827
:100C80006D58A4006E46A5510133F5E700220020FF
:100C900007E040001F239B1A9B0069465B58181809
:100CA00001321F2AF5DD20B070BD10B5002007E02D
:100CB00007231B1A9B0001241440CC50520801301A
:100CC0000728F5DD10BD70B504000522FFF7C8FF49
:100CD000D0252D062B695840E3691840E8610126AC
:100CE0003300626993406B616420002101F0E8FEEB
:100CF00063699E40AE616420002101F0E1FE70BD99
:100D000030B587B0050014000591002304E0990078
:100D100001AA085988500133032BF8DD01A92800E6
:100D2000FFF7D1FF002306E0191D8900085999003B
:100D300001AA88500133032BF6DD01A92800FFF733
:100D4000C2FF07B030BD10B500248461C461846265
:100D5000C462029C046043608260C160039B0361C3
:100D6000049B4361059B0362069B436210BD000028
:100D7000F0B587B004000D00012806D0002C02D188
:100D8000224B9D423DD007B0F0BD204B9942F5D19A
:100D90001F480BF0DBFB04230493142103910B3356
:100DA0000293013B019309330093013B152219483B
:100DB000FFF7C9FF184F4C221849380005F0BCFD59
:100DC00000263E657E6558230122FA540133FE5405
:100DD0000133FE540133FE540133FE54104FC92336
:100DE000DB00104AFA500833F818812292000E49AD
:100DF00005F0A2FD0D4BFE500D4BFE540D4BFE5465
:100E0000BCE703480BF0B2FBBDE7C046FFFF0000A4
:100E10004C450020A84600204046002064CC041029
:100E20007025002020A10700B0CC04105808000055
:100E30005C0800005D08000010B588B004002022A6
:100E40000021684605F072FD012307936A460021E0
:100E50002000FFF755FF0A2001F05EFE08B010BD2C
:100E6000F0B5A9B0050022AE394C23003033320072
:100E700083CB83C283CB83C21DA9230048330A00DE
:100E800083CB83C203CB03C200231893199301279A
:100E90001A971B931C932022002110A805F046FDF1
:100EA000129708A923005C330A0083CB83C283CB4B
:100EB00083C203CB03C2694610340A000BCC0BC2B9
:100EC0000BCC0BC20ACC0AC2062231002800FFF765
:100ED000C7FE0400A861052231002800FFF7C0FE0C
:100EE000E861200000F0E1FCAA69D0231B065A62E9
:100EF0009A616B6A022B01D0042B01D10123149358
:100F00001DA92800FFF7DFFE1DA92800FFF7DBFE63
:100F10001DA92800FFF7D7FE18A92800FFF7D3FE68
:100F200010AA00212800FFF7EBFE08AA00212800E4
:100F3000FFF7E6FE6A4600212800FFF7E1FE2800E1
:100F4000FFF77AFF0023AB62EB6229B0F0BDC04629
:100F5000E4CE041010B588B0040013000A00406A03
:100F600002280CD004280FD069462000FFF79DFE10
:100F70006A4600212000FFF7C3FE08B010BD9B01A8
:100F80005B1880331A00EFE7002B01D18032EBE7CA
:100F9000012B05D0022B05D0032BE5D1D432E3E79A
:100FA000C032E1E79432DFE770B588B005000E008B
:100FB000002409E069462800FFF777FE6A46012110
:100FC0002800FFF79DFE0134325D002AF2D108B0FF
:100FD00070BD000010B5064C2000FFF741FF200057
:100FE000FFF72AFF002200212000FFF7B3FF10BD0A
:100FF000A846002070B51D4C002206212000FFF7F6
:10100000A9FF1B492000FFF7CFFF0122002120008C
:10101000FFF7A0FF174E31002000FFF7C5FF0122A8
:1010200013212000FFF796FF134D29002000FFF742
:10103000BBFF022205212000FFF78CFF0F49200093
:10104000FFF7B2FF032200212000FFF783FF3100EA
:101050002000FFF7A9FF032213212000FFF77AFFEA
:1010600029002000FFF7A0FF70BDC046A846002061
:10107000C8CA0410D4CA04100C540510D8CA0410ED
:1010800070B582B00500080013230093123B0A4A92
:101090000021FFF737F9041E01D102B070BD074EE1
:1010A000012201213000FFF755FFA40061593000F3
:1010B000FFF77AFFF1E7C046FF0F0000A8460020C7
:1010C00070B582B00500080013230093123B0A4A52
:1010D0000021FFF717F9041E01D102B070BD074EC1
:1010E000032201213000FFF735FFA40061593000D1
:1010F000FFF75AFFF1E7C046FF0F0000A8460020A7
:1011000010B5084C2000FFF797FE012202212000B5
:10111000FFF720FF04492000FFF746FF034801F0D6
:10112000FBFC10BDA8460020E4CA04108813000090
:10113000F8B505001A4C2000FFF77EFE00220021C2
:101140002000FFF707FF17492000FFF72DFF6B6D09
:101150009E1E06D4F31C2F6D9F4200DB1F0034003F
:101160000CE00026F6E710490D48FFF71DFFA3002D
:10117000EA6CD1580A48FFF717FF0134BC420DDA78
:10118000A21B013200210648FFF7E4FE6B6DA3426B
:10119000E9D006490248FFF707FFE8E7F8BDC04677
:1011A000A8460020F8CA0410005205103C53051050
:1011B00010B50400436D581C216D03F057FC6165A8
:1011C00010BD000070B50500174C2000FFF734FE7D
:1011D000002200212000FFF7BDFE14492000FFF788
:1011E000E3FE012200212000FFF7B4FEEA6C6B6DE4
:1011F0009B00D1582000FFF7D7FE0D492000FFF7D4
:10120000D3FE022200212000FFF7A4FE094920009E
:10121000FFF7CAFE032200212000FFF79BFE0649CC
:101220002000FFF7C1FE70BDA846002008CB0410C7
:101230001CCB041020CB041034CB041010B505F0E7
:101240004FFD1F211B2000F0CBFA002200211B20A4
:1012500000F0DEFA00211B2000F004FB1F211A2001
:1012600000F0BEFA002200211A2000F0D1FA00217D
:101270001A2000F0F7FA10BD10B51C2000F00AFB90
:101280001D2000F007FBD0231B06802252059A6226
:10129000802292059A6210BD084B1B68E022D201A1
:1012A0001340074A1360074B04221A60034B1B6864
:1012B000DB05FBD5014B586880B2704700C0044085
:1012C00000D0044000E004400A4B1A6880235B0110
:1012D0005340E022D2011340074A1360074B042217
:1012E0001A60044B1B68DB05FBD5024B586880B2C3
:1012F0007047C04600C0044000D0044000E00440F5
:1013000010B50400D0231B065A68120F01231340A6
:101310000361826893420FD1FFF700F8A369C01AF6
:10132000236A98420CD92369226893420AD0236029
:10133000002B09D0002004E0FEF7F0FFA061EBE7EE
:10134000002010BD0020FCE70120FAE710B50400E2
:10135000D0231B065A68520F012313404361C26811
:1013600093420FD1FEF7DAFFE369C01A236A98426D
:101370000CD96369626893420AD06360002B09D07C
:10138000002004E0FEF7CAFFE061EBE7002010BD9B
:101390000020FCE70120FAE74369C360036983602A
:1013A00070470000F8B5070014004E1E11E06421DC
:1013B000200003F083FB4D006421200003F07EFB3E
:1013C00004006A1C0A4B9A5CBA55721E5B5DBB54E2
:1013D000023E632CEBD8092C07D96400621C044B35
:1013E0009A5C7A701B5D3B70F8BD30343C70FBE753
:1013F00098CB0410F0B5CE46474680B587B00600BE
:10140000894615009846D70F002A11DB28000124D1
:10141000092810D963280DD9FA239B0098425CD380
:10142000354B98425BD9354903F048FB0434EFE76C
:101430005542EBE70134391902AB00932D2268467F
:1014400028F0B2F8009BD8192A002100FFF7AAFF64
:101450002B4C002200212000FFF77CFD29492000B1
:10146000FFF7A2FD012200212000FFF773FDF26CBF
:10147000736D9B00D1582000FFF796FD02220021DA
:101480002000FFF767FD20492000FFF78DFD414652
:101490002000FFF789FD1D492000FFF785FD009919
:1014A0002000FFF781FD4B46002B1AD0144C03227D
:1014B00000212000FFF74EFD15492000FFF774FDC5
:1014C000009802AB984203D0029B591C05F04AFADF
:1014D00007B0C0BCB946B046F0BD0234ABE7033438
:1014E000A9E7074C032200212000FFF733FD09493B
:1014F0002000FFF759FDE3E70F2700001027000049
:10150000A846002048CB041058CB041060CB041030
:1015100068CB041080CB0410F0B5C64600B58748F0
:10152000FFF758FD8648FFF72DF9864C2000FFF79E
:10153000A3FE2000FFF782FEFEF700FF82480AF0BC
:10154000E7FD012585E07F4F3800FFF7BDFE040071
:101550003800FFF7A1FE060001002000FFF7D0F8D9
:10156000764B98461800FFF745FD31004046FFF7DF
:1015700087FD21004046FFF7A3FD3800FFF7C0FEBE
:1015800000286CD06E48FFF701F9002804D06C48A1
:10159000FFF70CF9002803D16848FFF7B1FD5EE0C2
:1015A000664C2200503221004C316548FFF710F99B
:1015B00059230122E254013B0022E2544FE0100083
:1015C000FFF7B6FD002551E05C48FFF7F1FD25006F
:1015D00051E05A4859230022C25401330132C25407
:1015E000FFF7F0FD554A5A23D35C002B58D1534ADC
:1015F0005B23D65C002E29D05149544BCB58544A1A
:101600008A585448095C4D48FFF7F4FE4D48FFF7EF
:1016100077FE002879D14B48FFF798FE041E78D159
:10162000474A4D4BD35C002B10D1444A5933D35C0D
:10163000002B0BD1130000225B215A5402390120E8
:1016400058545A654548FFF7F7FB35003D48FFF70A
:10165000A3FE3A4A5823D35C002B00D073E7374AE5
:101660005923D35C002BBDD0002DA8D13548FFF7FE
:101670006DFE041EA8D13348FFF742FE041EB1D010
:101680002E4B5B6D002BA4D12C4B59220021995479
:10169000013A013199543148FFF7CEFB2500A1E70B
:1016A0002848FFF72DFE002814D0244B5B2201218F
:1016B0009954002259315A54214B26495A54264AEA
:1016C0009B5C002B17D11E4A234B0121D154234888
:1016D000FFF7B2FB1B48FFF739FE041E87D0174BFC
:1016E0005A2200219954013A013199541B48FFF7BD
:1016F000A3FB25007BE7124A174B0021D154FEF7CC
:10170000F9FF0A2001F008FADDE70D48FFF7D4F8E9
:1017100081E700250A4A104BD554FEF7EBFF0A205B
:1017200001F0FAF9054B5B229D54023A01219954CC
:101730005D650A48FFF780FB250071E74046002001
:1017400070250020AC150020CD0B001054080000BF
:10175000580800005D0800005C080000A846002052
:1017600010B502490120FFF703FB10BDFFFF000089
:101770000120704710B50400FFF7FAFFA04205D31F
:10178000AE2080006043044BC01810BD034B044AD8
:101790005521044801F090FFD015002014D004100A
:1017A00098D0041028D004100120704710B5040010
:1017B000FFF7FAFFA04205D3200100198000044C76
:1017C000201810BD034B044A6221044801F074FF45
:1017D0008818002070D0041088D0041028D004107D
:1017E00010B58300084A944663441C684022624056
:1017F000C02414408022520113431C60C000034BDC
:101800009C466044416010BD04C00140004001405E
:1018100080000B4B9C46604400290DD00823002A11
:101820000CD004221343026853400C221340802240
:1018300052011043036070470023F0E70022F1E7F4
:1018400004C001408000064B9C46604409010368C7
:1018500059403023194080235B01184301607047D1
:1018600004C00140002909D08000094B9C46604417
:1018700080239B0118434023036070478000044B82
:101880009C466044C0239B01184340230360F4E757
:1018900004C0014010B501238340D0221206936298
:1018A00093610521FFF79CFF10BD70B50500002472
:1018B00001E06D0801341D2C05D8EB07F9D5200097
:1018C000FFF7E8FFF5E770BD034B1B6802201840E7
:1018D000431E9841C0B2704700C00640EFF310802D
:1018E00072B6034B1B68002BFBD0BFF35F8F7047B2
:1018F0002C0100D0BFF35F8F024B00221A6080F3EF
:10190000108870472C0100D0F8B506000C001500B7
:10191000FFF7E4FFE308F718F15C072222400123F8
:1019200093400B4205D1DBB20B433B70FFF7E2FF64
:10193000F8BD2100280001F087FFF0B583B0060054
:10194000019114001F00FFF7C9FF00E00134BC4201
:101950000CD8E308F518F35C0721214001228A40E6
:101960001A42F3D1D2B21A432A7001E00124644230
:10197000FFF7C0FF002C02DB200003B0F0BD019B8D
:10198000002BF9D0089801F05FFF0000002307E06A
:10199000054A9A189200BFF35F8F0021116001334E
:1019A0001F2BF5D97047C04640000034054A107817
:1019B000431CDBB21370172B02D9130010221A70CC
:1019C0007047C046CC180020074B9B681030800041
:1019D0001950BFF35F8FBFF35F8F044B0021196075
:1019E00082F310887047C04600ED00E0240100D06B
:1019F00010B5091A081F0A4B9C466144094A9142D6
:101A000008D8C30706D440104005400D064B1843C4
:101A100080B210BD054B064AA321064801F04CFEDA
:101A2000FC070000FE0F000000E0FFFFA8D004103C
:101A300018D30410D8D0041010B5091A04394C0872
:101A4000090B08D14905490D064A11430180064B8F
:101A50002343438010BD054B054AAB21054801F0E7
:101A60002BFEC04600F0FFFF00F8FFFF34D104104A
:101A7000ECD20410D8D0041001238340034A10682C
:101A80001840431E9841C0B27047C04600E100E0D4
:101A9000002904D0034B1860034B18607047034BB8
:101AA0001860FBE780E200E000E100E080E100E098
:101AB00010B5012383401800FFF7EAFF10BD0000B6
:101AC000024B9B6810308000C058704700ED00E06A
:101AD00070B504000D00EFF3108672B60C4B1B6856
:101AE000002BFBD0BFF35F8F2000FFF7E9FF094B0E
:101AF000984201D0A84205D1320029002000FFF70A
:101B000063FF70BD044B054A8621054801F0D4FDF2
:101B1000240100D0CD01001044D104104CD3041096
:101B2000D8D00410F0B5DE4657464E464546E0B5DF
:101B300089B0814601911500EFF3108A72B6744B9B
:101B40001B68002BFBD0BFF35F8F724B0027DF5762
:101B5000002F40DB7C00E419A4006F482418062203
:101B6000A2566C4B1A706D4B9A684B4610339B0013
:101B7000D35898461E001B1A2F2B38D9684B98450E
:101B80002FD105AE674B33807B009B46D819800070
:101B9000614B9846404402306349FFF729FF70804B
:101BA000624BB380FF23B371F571019B07935F44D0
:101BB000BF0047440ECE0EC701231C43A046524629
:101BC00041464846FFF700FF09B0F0BCBB46B246AD
:101BD000A946A046F0BD564B564AD721564801F0BB
:101BE0006BFD564B534ADE21534801F065FDC0435F
:101BF00040440C2102F062FF002912D101239E43D0
:101C0000B34633000026DA79AA4211D90621595683
:101C100000290CDB4A00521892001E003E4B9B1814
:101C2000F1E7474B434AEA21434801F045FD1E00D6
:101C3000002E3AD005AB434A1A80813A5A800623D7
:101C4000F3560293002B17DA3F4805AB9B4698806A
:101C5000029A9A71DD71019A0792301D2100FFF7F7
:101C6000C7FEB080B7717B00DB199B002A4FFF18BD
:101C70005B4607CB07C7A2E77800C0198000264B58
:101C8000C0180430321DB388D90A1C2907D15B055E
:101C90005915023149005118FFF7AAFED5E72B4B21
:101CA0002B4AB121244801F007FD05AE1D4B3380BE
:101CB0007B000293D8198000174A904602004244E4
:101CC0000392901C1849FFF793FE7080039A101D31
:101CD0005946FFF78DFEB0801E4B5A464146521AB8
:101CE000524153431B0DB371F571019A0792029B48
:101CF0009C466744BF0047440ECE0EC7114B5A4660
:101D00001380813B538001231C43A04657E7C04604
:101D1000240100D019490020D018002000ED00E077
:101D2000CD01001000A1FFFF0019002001BDFFFF41
:101D30007CD1041034D30410D8D00410A4D10410E2
:101D4000CCD104100148000001BD000040D20410B5
:101D500024D30410AAAA0000F0B5CE46474680B5A9
:101D600083B006000D00EFF3108872B6564B1B6867
:101D7000002BFBD0BFF35F8F544B9A6834001034B4
:101D8000A300D758524B9F4207D0AF4200D198E0F2
:101D90000197504BFB1A2F2B09D9424639003000CE
:101DA000FFF712FE03B0C0BCB946B046F0BD30002C
:101DB000FFF762FE814600213000FFF779FEBFF396
:101DC0005F8FEFF30581002901D08C4211D10123EF
:101DD000019C9C430022A368AB4212D00622A2566B
:101DE000002A0DDB53009B189B002200394CE4189D
:101DF000F1E73621384B394AFF31394801F05CFCB4
:101E00002200AB4256D106256557002D38DB6B000A
:101E10005B199A002F4B9B189A68A260DA79E271DD
:101E200006229A56A2719B795BB2002B0FDA2D48DD
:101E3000A0806B005B199B00264AD3182A4A1178B0
:101E40009971157049463000FFF732FEA5E7201D55
:101E50006B005B199B001F4A9B181A1D9B88D90AAF
:101E60001C2907D15B055B15023359005118FFF798
:101E7000BFFDDDE71D4B1E4AB121194801F01CFCD6
:101E8000002912D1002A0ED0FF239371194B9380A1
:101E9000154A1378A371184B0E49641A64416343C1
:101EA0001B0D1370CEE70A4FF2E7201D1349FFF711
:101EB000C3FDC7E76A21124B084AFF31084801F009
:101EC000FBFB034F69E7C046240100D000ED00E0B2
:101ED000CD010010D018002058D2041004D30410F3
:101EE000D8D0041001BD00001949002040D20410D0
:101EF00024D3041001BDFFFFAAAA00000A19002084
:101F00008CD2041070B5012101432E4BCB1A2F2B1C
:101F100028D8EFF30583002B2BD0EFF3108C72B68B
:101F2000294A1268002AFBD0BFF35F8F274A0400BA
:101F3000244D641B64416243120D54B2244A9268DA
:101F40009B00D2588A421BD00022032A32D8530069
:101F50009B189B001B49CB189B795BB2A3421FD0F7
:101F60000132F2E7C7211B4B1B4A49001B4801F015
:101F7000A3FB92211A4B184AFF31184801F09CFB31
:101F8000134A92681749D150174B1A7882711C7006
:101F9000BFF35F8F0C4B00221A608CF3108870BD6A
:101FA0000D005300991889006918FF268E710F4A99
:101FB0008A80E9E7D1210E4B074A4900074801F022
:101FC0007BFBC046D0180020240100D0AAAA000044
:101FD00000ED00E094D20410D0D20410D8D0041048
:101FE000BCD20410CD0100101949002001BDFFFF33
:101FF000C8D204100022044B02E0044902C301329B
:10200000072AFAD97047C04600E400E0808080804B
:1020100070B504000E001500FFF7C8FC0100200099
:1020200000F006F8A680E580BFF35F8F70BD00006A
:10203000024B9C46614489000160704740000034B7
:1020400010B50400FFF7B2FC01002000FFF7F0FF1D
:10205000FF232371BFF35F8F10BD10B50400FFF79E
:10206000A5FC01002000FFF7E3FFFF2323710023FD
:102070006371BFF35F8F10BD70B505000C000800E1
:1020800000F0FEFE0949200000F03EFEFFF78EFC46
:10209000074B9C466044800068602C75D0231B066B
:1020A0001B786B75A400034BE55070BDBD23001079
:1020B00040000034D84600200A4B1A68EFF3108124
:1020C00072B61368002BFCD0BFF35F8F054B1B6803
:1020D000BFF35F8F00221A6081F3108840BF002099
:1020E00000217047F048002010B5002922D0036875
:1020F0001B7B99421ED8174B9C466144090183689B
:102100009C4661440C684968002A19D003681B7B0F
:102110009A4215D883680F488446624412019A187F
:1021200010685368020001208B4201D80ED00020B5
:10213000C0B210BD084B094A3C21094801F0BCFA65
:10214000054B064A3C21064801F0B6FAA242EFD8F8
:10215000EDE7C046FFFFFF0FC0D5041040D80410C4
:102160006CD5041010B500291ED0037B99421BD8F2
:102170004B005B18033B0468A4466344002919D054
:10218000002A1DD0914221D0002A25D0047BA242F2
:1021900022D80468500080180338201881701978FC
:1021A00000291FD11A7010BD104B114A6821114827
:1021B00001F082FA104B114A6F310E4801F07CFA9F
:1021C0000F4B0E4A70210B4801F076FA0D4B0B4A6B
:1021D0007121084801F070FA044B054A682105484E
:1021E00001F06AFA41701A70DDE7C046E4D50410C8
:1021F000ACD8041000D6041068D6041088D8041097
:1022000074D6041080D6041070B506000D001400BA
:10221000002914D0002A14D08068736898470028D9
:1022200006D0220029003000FFF79CFF280007E0BD
:102230002A0021003000FFF795FF200000E0100089
:1022400070BD0800FCE70000F0B583B00500009207
:1022500001930AAB1C780BAB1F78002C26D00368C7
:102260005A7B944207D10123002B19D1002C3BD17A
:10227000200003B0F0BD002C0CD01A7B944209D88A
:102280001A6863001B19033BD3189B78002BEBD013
:102290000123E9E73E4B3F4A68213F4801F00CFA31
:1022A0003E4B3F4A67213F4801F006FA03689C7B9A
:1022B000002CDBD012D01A7B94420FD86200121986
:1022C000033A19688C46624451789973002900D109
:1022D000D9730023937053701370C7E72C4B2D4AAA
:1022E00068212D4801F0E8F9002C3AD02B681B7BBF
:1022F0009C4236D82C4BE3181B01AA6894466344D1
:10230000009A1A60019A5A60089A9A60099ADA60EB
:102310002E68002C2BD030D0337B9C422DD863000C
:102320001B19033B32689446634400229A705A702A
:102330001A70717B22003000FFF766FF70738442D1
:1023400000D095E7287D009A019B00F025FD061E30
:1023500001D0002F17D00C9B002B00D188E71E70F6
:1023600086E7124B124A3C210E4801F0A5F9114BA9
:10237000114AA521084801F09FF9054B054A68213B
:10238000054801F099F92868210000F03DFFE2E7D7
:10239000E4D50410ACD8041000D6041098D604106C
:1023A000B8D804106CD50410FFFFFF0FC0D504107F
:1023B00040D8041068D504109CD80410F0B5DE464F
:1023C00057464E464546E0B58BB00990002308932A
:1023D0008200B54BD658370052E0B44BB44A3F2187
:1023E000B44801F069F9B44BB44A3C21B44801F057
:1023F00063F9002901D1002869D10021404600F08D
:10240000F9FEA04219D12A686B6806920793AB685F
:102410009846EB689A464346002B14D0002C18D0FF
:102420003B681B7B9C4214D8631EFA68D35C0893FC
:102430001B0218433861002015E0A24BA24A8E21EE
:102440009F4801F039F9A14B9F4A92219C4801F025
:1024500033F9994B9E4A4121994801F02DF9002307
:102460009A46984600207B68BFF35F8F00221A606F
:1024700086F310884346002B32D1002800D10CE1AE
:1024800000F0FEFB02000B1EA7DB002000210690DF
:1024900007917868EFF3108672B601680029FCD0C6
:1024A000BFF35F8F396888464C7B002CD7D09AD019
:1024B000097B8C4297D8874965182D01B9688C46ED
:1024C000654428686968801A9941002991DD2A6865
:1024D0006B68099800F060FC00239A469846C2E7B2
:1024E000089B1B022343994651461800C04705002C
:1024F0000E007A68EFF3108B72B6136859424B41A5
:10250000D9B2002BF9D1BFF35F8F002E1EDB002E56
:1025100046DD3B69002B47D04B456DD100F0B0FB49
:1025200002000B1E6EDB52197341002B70DB002B77
:1025300072DB002104910131039102945146019113
:10254000414600913800FFF77FFE4CE03B69002BCD
:10255000DDD04B4514D1069A079B521BB341002B8B
:1025600014DB002B16DB002104910131039102944E
:1025700051460191414600913800FFF765FE32E077
:10258000554B514AA1214E4801F096F80122524282
:10259000524BE6E7454B464A3F21464801F08CF84E
:1025A000002E01D1002DB4D13B68002C50D05A7BB5
:1025B000944237D1012100294AD1DA7B002A4DD13A
:1025C0009A7B002A03D1DA7B002A5AD19C73DC73F0
:1025D000002C5CD03B681B7B9C4258D8FA68013CBD
:1025E000135D0133135500233B617A68BFF35F8F9E
:1025F00013608BF3108843E7374B334AA4213048EC
:1026000001F05AF8294B2A4A3F212A4801F054F890
:1026100001225242314B8AE7244B254A3F2125486B
:1026200001F04AF8002C0DD01A7B94420AD86200BF
:102630001219033A1868844662449278002ABAD084
:102640000121B8E7264B274A6821274801F034F8D2
:10265000264B274AF621244801F02EF8002A0AD0FA
:10266000197B8A4207D851008A18033A19688C46A8
:1026700062445470A4E71A4B1A4A68211A4801F0C0
:102680001BF81C4B1A4AFB21174801F015F80A4B9E
:102690000F4A41210A4801F00FF80BB0F0BCBB46CD
:1026A000B246A946A046F0BDD846002068D3041023
:1026B0000CD8041084D30410C0D5041040D80410E2
:1026C0006CD50410C0D6041024D80410D8D6041039
:1026D00064D80410FFFFFF0FE4D60410FFFFFF7F54
:1026E000E4D50410ACD8041000D6041020D7041090
:1026F00078D8041044D7041010B50C4B5B68002B3D
:1027000004D00A210A48FFF793FC10BD074C2300B0
:10271000084A1021206800F07DFC032000F0A4FA94
:1027200003212000FFF7A8FCEBE7C04618190020A2
:10273000F0480020E920001010B5064B5B68002B24
:1027400001D0044810BD044B044A5E21044800F047
:10275000B3FFC0461819002058D704104CD80410F5
:102760006CD50410F0B5DE4657464E464546E0B5FA
:102770008BB0804616001F00149B9A46159B994605
:1027800016AB1B789B461F2302AA94466344002283
:102790001A702BE0002809D042461268127B904242
:1027A00004D8421E4146C9688A5C41E0404B414A18
:1027B0004121414800F080FF07984CE0361BAF41B3
:1027C000002F07DB002F11DA3C4B3D4A3F213D48EB
:1027D00000F072FF012676423B4FF3E7374B384A51
:1027E0003F21384800F068FF002F4FDB43465A680E
:1027F000EFF3108472B6136859424B41D9B2079176
:10280000002BF8D1BFF35F8F1F3302AA94466344B5
:1028100004930023039302934B4601935346009382
:1028200032003B004046FFF70FFD031EB2D102000D
:1028300041464968BFF35F8F00250D6084F310881F
:10284000002B29D01F2302A98C4663441B78002B40
:10285000B2D112021043002B20D05B46002B1DD0BA
:102860004946D04704000D0003000B431DD000294A
:10287000A4DB00F005FA06000F1EAFDB36196F412E
:10288000002FB1DA012676420F4FADE70B4B0C4A11
:102890003F210C4800F010FF012040420BB0F0BC7B
:1028A000BB46B246A946A046F0BD0798F6E7C0462B
:1028B000C0D5041064D804106CD5041068D304107B
:1028C0000CD8041084D30410FFFFFF7FF8B5040078
:1028D000002900D162E04268EFF3108572B61368F8
:1028E00058424341D8B2002BF9D1BFF35F8FCBB22E
:1028F0002268567BB3421BD10120002848D02069B2
:1029000088422BD0090AC9B2002B2ED02068007B48
:1029100083422AD8581EE668305C88422BD00020BB
:102920006368BFF35F8F00221A6085F31088F8BDDB
:10293000002B0DD0167BB3420AD85E00F618033E7A
:102940001768BC466644B678002ED6D00120D4E77E
:10295000134B144A6821144800F0AEFE2C21134B8F
:10296000134AFF31134800F0A7FE134B134A4121CD
:10297000104800F0A1FE1900100000F045FC0028EE
:10298000CED199210E4B0A4A49000A4800F094FE24
:1029900023698B42C4D100232361C1E70020C6E72D
:1029A000E4D50410ACD8041000D604107CD7041071
:1029B000F4D704106CD50410C0D5041064D80410EA
:1029C000A0D70410F0B587B006000F00EFF3058321
:1029D000002B1FD106246442E517A4197D418D42C6
:1029E00002D803D1844201D900240025002D14DB34
:1029F0000494059500F044F902000B1E13DBA41AA1
:102A00009D41002D17DC14D03000390000F044F94E
:102A100007B0F0BD234800F017FF234B234A3F21A6
:102A2000234800F049FE204B204A3F21204800F077
:102A300043FE002CE8D0FFF77FFE002302930193B2
:102A40001C4B0093049A059BFFF78CFE002818DAB4
:102A5000DAE7002300E00023002BD5D1164B1A68DB
:102A6000EFF3108172B61368002BFCD0BFF35F8FB9
:102A7000114B1B68BFF35F8F00221A6081F310882F
:102A800020BF0499059A0D4B5B6A9A42E3D80B4824
:102A9000806A884203D29A42DBD00123DCE701231B
:102AA000DAE7C046A4D7041068D304100CD8041089
:102AB00084D30410B9200010F048002000400540E5
:102AC00070B504000D0000F0DBF802000B1E0ADBFD
:102AD000200029008018594100290ADB00290CDB5D
:102AE000FFF770FF70BD084B084A3F21084800F00F
:102AF000E3FD012040420749F0E7034B034A3F2131
:102B0000034800F0D9FDC04668D304100CD8041067
:102B100084D30410FFFFFF7F10B5FA229200002338
:102B2000002103F037FDFFF7CBFF10BD70B584B077
:102B300005000C00EFF30583002B1ED1FFF7FCFD11
:102B4000002302930193224B00932A002300FFF7F6
:102B500009FE061E23DD20BFFFF7EEFD3100FFF763
:102B6000B5FE1C4B5B6A9C422DD81A4A926AAA4257
:102B70002CD29C4225D0012026E0164B5B6A99425C
:102B800009D8144A926A824207D2994201D00120A0
:102B90001AE0002018E0002016E0012014E00D4BA0
:102BA0005B6A9C4209D80B4A926AAA4207D29C42AD
:102BB00001D0012008E0002006E0002004E0012010
:102BC00002E0002000E0002004B070BD0120FBE71F
:102BD000B92000100040054070B5EFF305801038B3
:102BE000EFF3108C72B61A4B1B68002BFBD0BFF3AF
:102BF0005F8F01221300834016494B6316490B6017
:102C0000164909780C00C440224214D0114A546A73
:102C10008200134D5259944206D38200114C12592E
:102C200099430E4B197007E00A4A031D9B009958FF
:102C30009950002200E00022BFF35F8F044B002177
:102C400019608CF31088002A00D0904770BDC046F0
:102C5000280100D0004005403C7005401E4900207E
:102C6000F8480020BC45002010B50100024A034886
:102C7000FEF74AFE10BDC046D8D804101649002001
:102C8000044B5B6A034A906A1900536A9942F9D16E
:102C90007047C04600400540084B5B6A01E0074BA7
:102CA0005B6A8B42FBD301E0044B5B6A8B4203D12E
:102CB000024B9B6A8342F7D37047C04600400540F1
:102CC00070B504000D00FFF7DBFF02000B002000D1
:102CD0002900801859418B4202D804D1824202D97E
:102CE00001204042C117002902DBFFF7D5FF70BD6C
:102CF000024B034A3F21034800F0DEFC68D3041076
:102D00009CD9041084D3041070B504000D00EFF3B7
:102D1000108672B61B4B1B68002BFBD0BFF35F8F76
:102D2000002D1CD02000FEF7CBFE174B83420BD0AA
:102D300019002000FEF7CCFE01212000FEF7B8FEAE
:102D40000123A340114A1360A400114BE550BFF3C7
:102D50005F8F0C4B00221A6086F3108870BDA200B2
:102D60000B4B0021D1500122A2400A490B7893431A
:102D70000B7005492000FEF7EFFF00212000FEF751
:102D800097FEE4E7280100D0D92B001038600540F9
:102D9000BC4500201E490020F0B5DE4600B584B0D9
:102DA0000400150001921E000293FFF769FF0395CE
:102DB0008E4202D84ED185424CD9EFF3108B72B6B9
:102DC000274B1B68002BFBD0BFF35F8F254A17787A
:102DD0000125A540EBB23B431370234B5D63221DDD
:102DE00092000199D150A2002049029850501B6ACC
:102DF0002B4212D11C4B1B6C2B4208D00020BFF37E
:102E00005F8F174B00221A608BF3108823E0184B5A
:102E1000184AC521184800F04FFCFFF731FF8E42D9
:102E200014D802D1039B834210D80E4B1B78BB42AF
:102E30000ED00D4B1D625D631F2004400123A34093
:102E40000E4A1360074B1F701E38D8E70020D6E7E4
:102E50000120D4E7012004B080BCBB46F0BDC046D1
:102E6000280100D01E49002000400540F8480020FD
:102E7000FCD8041080D9041020D9041080E200E0AE
:102E8000EFF3108C72B60B4B1B68002BFBD0BFF31B
:102E90005F8F01238340084A136208490A789A43E6
:102EA0000A70BFF35F8F034B00221A608CF3108807
:102EB0007047C046280100D0004005401E49002050
:102EC00010B500291ED0037B99421BD84B005B181C
:102ED000033B0468A4466344002919D0002A1DD08E
:102EE000914221D0002A25D0047BA24222D8046836
:102EF00050008018033820188170197800291FD1DC
:102F00001A7010BD104B114A6821114800F0D4FB13
:102F1000104B114A6F310E4800F0CEFB0F4B0E4A9A
:102F200070210B4800F0C8FB0D4B0B4A712108487B
:102F300000F0C2FB044B054A6821054800F0BCFBC9
:102F400041701A70DDE7C046E4D50410BCDA041005
:102F500000D6041068D60410A8DA041074D6041041
:102F600080D6041070B506000D001400002914D09E
:102F7000002A14D0806873689847002806D0220081
:102F800029003000FFF79CFF280007E02A002100FD
:102F90003000FFF795FF200000E0100070BD080032
:102FA000FCE7000010B50023437301338373037BF8
:102FB000C3730123027B9A4214D9002B0CD0027BED
:102FC000934209D85A00D218033A01688C466244E9
:102FD0000133DBB25370EDE70B4B0C4A68210C4810
:102FE00000F06AFB002A09D0924207D8016853001A
:102FF0009A18033A8A180023537010BD024B034AF3
:103000006821034800F058FBE4D50410BCDA041032
:1030100000D6041010B5017342608360FFF7C2FF51
:1030200010BD000070B50400081E00D170BD00295D
:1030300034D0237B994231D84B005B18033B226884
:10304000944663445A78002AF0D02DD0237B9A42CC
:103050002AD853009B18033B21688C4663445D7853
:1030600000215970002825D0237B984222D84300A4
:103070001B18033B21688C466344002159700100F2
:103080002000FFF76FFF060029002000FFF7CAFFAE
:10309000020031002000FFF765FFC7E7084B094A2F
:1030A0006821094800F008FB054B064A68210648DC
:1030B00000F002FB024B034A6821034800F0FCFACF
:1030C000E4D50410BCDA041000D6041070B5050075
:1030D0000C00160000292FD034D0037B994231D840
:1030E0004B005B18033B0268944663445A78002AFD
:1030F0002ED19A78002A31D11978FFF793FF030077
:10310000002E0AD0EA7B002A2ED1AA7B002A03D106
:10311000EA7B002A3BD1AC73EC73002B3DD1002C31
:103120004FD02B7B9C424CD82B6861000C19033C80
:103130001C190023637070BD254B264A3821264890
:1031400000F0BAFA254B264A6821264800F0B4FA66
:10315000254B204A3A21204800F0AEFA234B1D4A65
:103160003B211D4800F0A8FA002A0AD0297B8A4298
:1031700007D851008A18033A29688C466244547073
:10318000C3E7164B164A6821164800F095FA184B0B
:10319000104A4221104800F08FFA002B0BD02A7BF6
:1031A000934208D843001B18033B2A6894466344A3
:1031B00000229A70B3E7094B094A6821094800F0D8
:1031C0007BFA064B064A6821064800F075FAC046AD
:1031D000B4D9041094DA0410BCD90410E4D5041056
:1031E000BCDA041000D6041010DA041038DA041027
:1031F00044D7041070B504000A00457B2900FFF78E
:1032000065FF6073280070BD70B50400002967D0A9
:10321000437B8B420ED0002911D0037B99420ED8FC
:103220004B005B18033B0268D0188378002B0CD14D
:10323000002056E00121FFF7DDFF012051E0294B7E
:10324000294A6821294800F037FA002B20D0227B38
:1032500093421DD85A00D318033B2268D218256820
:10326000EB5C8B421AD0002B1BD0227B934218D8E8
:103270005A00D318033B2268D21853788B4216D0D9
:10328000002BF0D11A4B1B4A6B211B4800F014FA9B
:10329000144B154A6821154800F00EFA4378137054
:1032A00007E0104B104A6821104800F005FA4378F7
:1032B000537000238370437001222000FFF706FF44
:1032C0000200617B814205D02000FFF74BFE607356
:1032D000012006E0094B074A7121074800F0ECF98C
:1032E000002070BDE4D50410BCDA041000D6041030
:1032F000C8D204107CDA0410BCD904105CDA0410C3
:10330000F8B5DE4657464E464546E0B505000F0087
:1033100092460A9A934250D31A0E91461E020A9A76
:1033200000233000494601F007FC80466C00641918
:10333000A400304B9C4664446368834200D26060C2
:103340002B1FDBB29B46012B3DD9C0239B0123439E
:10335000802212011A60AB00274A9958002907D031
:10336000506901F0ABFB431C5800C0180338FDD274
:1033700053465A0123685A40E0231A4080235B01D8
:1033800023431A605A46012A28D980239B012343EC
:10339000802212011A6043466360424600233000D7
:1033A000494601F0C9FBAD00134B58510120F0BC58
:1033B000BB46B246A946A046F8BD104B104A332181
:1033C000104800F079F9012FBFD1C0239B0123439E
:1033D00003221A60A368DB07FCD5C9E7216879409E
:1033E00003220A401A60A2680123BB401342FAD0AC
:1033F000CBE7C04600800040CC450020C8DA04106E
:103400003CDB0410DCDA041030B583B00C2000F093
:1034100011F9FEF759FA00280DD0002304E09900B5
:103420002D4A2E4888500133092BF8D92A4B2C4AB3
:103430005A6203B030BD2B4B00229A6700F002F9AC
:10344000294B01221A60274B5B6C012BFBD1274BC8
:1034500003221A60234B9B6B012BFBD1013300939A
:103460000433234A0121234800F054F80523009334
:10347000214A0121214800F04DF8214B0093002200
:1034800002210420FFF73CFF1E4D00952B00002277
:1034900001210520FFF734FF104C00942300002287
:1034A00000210720FFF72CFF0094230000220021B9
:1034B0000820FFF725FF0A4B00932300002200217C
:1034C0000920FFF71DFF00952B0000220021062098
:1034D000FFF716FFADE7C046CC450020006CDC02CC
:1034E0001BB70000008000403CB0004030B00040FE
:1034F000002F685900800240008C864700C00240BF
:10350000001BB700405973078000014BC05870473B
:10351000CC450020F0B5C64600B504000E001700EB
:103520001D00374801F0CAFA8046364BFA18364B70
:103530009A4239D80100380001F0C0FA0200103A6E
:1035400098235B009A4235D86B1E062B38D8069B11
:10355000013B062B34D83F09474537D32D04069B42
:103560001A0315432368002B36DB284B9C4244D0BA
:1035700080225201264B1A60264B1A60264B9B680C
:1035800011009943FAD12660A060231DC022920148
:103590001A43212313602368002BFCDAE56008231B
:1035A000136080BCB846F0BD1C4B1D4A11211D485C
:1035B00000F082F81C4B1A4A19211A4800F07CF8D6
:1035C0001A4B174A1C21174800F076F8184B144A7A
:1035D0002321144800F070F822683F231340B342BF
:1035E000C3D1A3681B051B0D8342BED1E368EE2245
:1035F000D2021340AB42B8D1D3E780229201B9E79F
:10360000001BB70080E84BD380F8A93200C002400D
:1036100000E0004000F0004000C000404CDB04101F
:103620008CDC0410ACDB041008DC041024DC041077
:1036300070DC041080239B000343014AD36270476F
:1036400000800540064BAA2212011A602F22DA6080
:10365000044B054A1A60024B5B68002BFBDA70478B
:10366000004002400060024000B0FA0000BEFDE7EA
:1036700003000A4A1268002A08D0084A1068C318D2
:10368000074A9A4206D3054A13607047034A054920
:103690001160F2E701204042F7E7C046A046002053
:1036A00000000420204900200020704701204042F3
:1036B000704710B5FFF7DAFF10B582B00C001900A3
:1036C000002A0CD0084B002A0BD001920093230053
:1036D0000200064803F0F8FA0120FFF7C7FF044B89
:1036E000F1E7034AF1E7C04698DC0410A8DC0410B7
:1036F000BCEF041070B52B4B2B4A1A602B4B2C4A95
:103700001A602C4B9A682A4B9343FAD12A4C01E059
:1037100008CC9847294B9C42FAD3FFF775FE234B00
:10372000274A1A60234B9B68DB43DB01FAD1254B08
:1037300040229A675A671A67DA66234C09E0234BDE
:10374000234A87212348FFF7B7FF2000FEF778FCC4
:103750000834214B9C4209D22368002BF5D0012B61
:10376000EDD12000FEF779FC0834F2E71B4CA1688C
:103770001B4DC022280003F0DFF8A560EFF305839E
:10378000002B00D000BEFEF701F9FEF733FCFEF778
:10379000B3FF144C01E008CC9847134B9C42FAD37A
:1037A00070BDC04600E00040BFCDFBFE00F0004011
:1037B000FE7F3C0000C00040282400203824002068
:1037C000FFFFFF0100F0014008240020D8DC0410B6
:1037D00080DD0410F8DC04102824002000ED00E057
:1037E00000000020382400205C240020D0B5041EF6
:1037F00018D0FFF745FA06000F1E15DB0D490868C3
:103800004968361A8F410C4A00233000390001F014
:103810007BF920606160084A00233000390001F024
:1038200073F9A2600020D0BD044B054A3F21054832
:10383000FFF742FF6025002040420F0068D30410CC
:1038400068DD041084D304100FB400B583B00848B9
:1038500003F00AFA049B002B07D005A90191180078
:1038600003F012FA034803F0FFF90120FFF7FEFE10
:1038700058DD0410D4EC04109A4200D288547047EA
:10388000704710B5002802D00B684968984710BDF2
:103890000100002007E083001B185B00501C08603B
:1038A0001078C01830380A681378303BDBB2092B27
:1038B000F1D97047F0B5DE4657464E464546E0B56D
:1038C00083B093461F000C9B9A460D9C0E9B994615
:1038D0000F9B9B0703D0B8460F00060022E0019221
:1038E000A34688464E46B9460700B44207D2551C47
:1038F0004B4641462020B84701342A00F5E73D00F9
:103900004F465C46019B9B46B1464646B84637004B
:103910002E0007E0013C551C5346185D4346390014
:10392000B0472A00002CF5D135003E0047460F9BDA
:103930009B0707D4100003B0F0BCBB46B246A946B3
:10394000A046F0BDB0464E46B9462F005D46531B1B
:10395000B342EFD2541C4B4641462020B8472200C8
:10396000F5E7F0B5CE46474680B585B09446984613
:103970000C9D0D9C0EAB1B789946109A119B129EC4
:10398000B7071CD4002B0CD0F7070AD54F46002FE1
:1039900002D10C37374204D0013B02E030272F55CB
:1039A0000134944201D21F2CF8D9F70707D59C4265
:1039B00005D21F2C03D830272F550134F5E7F70621
:1039C00015D5770505D4002C03D0944224D09C4211
:1039D00022D00F9A102A2BD00F9A102A30D00F9A8B
:1039E000022A35D01F2C02D830222A5501341F2C30
:1039F00005D84A46002A31D02D222A550134039693
:103A000002930194009543466246FFF753FF05B0C9
:103A1000C0BCB946B046F0BD621E012C06D00F9F57
:103A2000102F01D01400D4E7023CD2E71400D0E7F5
:103A3000B206D1D41F2CCFD878222A550134D1E731
:103A4000B206CCD51F2CCAD858222A550134C9E752
:103A50001F2CC7D860322A550134C3E7720703D53B
:103A60002B222A550134CAE73207C8D520222A550D
:103A70000134C4E7F0B5DE4657464E464546E0B54C
:103A800093B081468A46089209931CAB10CB1B78F1
:103A90009B461E9D219B9846002C03D11023424635
:103AA0009A4390468023DB0046461E4042461A4217
:103AB00012D0002C22D000260EE03033D9B2771C71
:103AC0000AAB99552900200000F0F8FFAC4216D34C
:103AD0001F2F14D83E0004002900200000F0EEFF44
:103AE000CBB2092BE9D94246920605D54121C91826
:103AF000C9B20A39C9B2E2E76121F8E727004346B3
:103B00000693209B05931F9B049303955B460293AA
:103B100001970AAB0093099B089A51464846FFF764
:103B200020FF13B0F0BCBB46B246A946A046F0BD8C
:103B3000F0B5DE4657464E464546E0B595B008908E
:103B400009910A920B931E9E1F9C20AB1B789B46EB
:103B5000229B9946239D269B9A463300234303D1FB
:103B6000103352469A4392468023DB0057461F404B
:103B700052461A4219D0330023432DD0002714E0B7
:103B80003033DAB27B1C98460CABDA554A462B0030
:103B90003000210000F0D0FFA5421FD819D04346C5
:103BA0001F2B1BD8474606000C004A462B0030004E
:103BB000210000F0C1FFD3B2092BE1D95246920691
:103BC00005D54122D218D2B20A3AD2B2DAE761223E
:103BD000F8E7B145E3D901E0002398465346069340
:103BE000259B0593249B04934B4603935B460293CA
:103BF000434601930CAB00930B9B0A9A09990898D2
:103C0000FFF7AFFE15B0F0BCBB46B246A946A046D2
:103C1000F0BD0000F0B5DE4657464E464546E0B5DD
:103C200091B083468A460C9298461A9C08941B9D34
:103C3000099522002B002000290001F010FA00282D
:103C400000D0E5E001225242D74B2000290001F0CC
:103C500001FA002800D0DBE001225242D34B2000C1
:103C6000290001F0E1F9002800D0D1E00022002372
:103C7000089E3000099D290001F0D6F9002800D0E7
:103C8000DDE008980999069007918023DB001E9AD1
:103C90001A400D921E9A1A4201D106231C930698CF
:103CA000079904000D000A000600024300D1D1E08C
:103CB000080D4005400DBE4CA44660440A03120B9B
:103CC000BC4B13431F0001F0DDF9BB4ABB4B01F0B5
:103CD00060F9BB4ABB4B01F035F904000D0000222E
:103CE000B94B3000390001F024F9B84AB84B01F063
:103CF00050F902000B002000290001F023F901F027
:103D0000D9F9814601F0BEF904000D00B14AB24B69
:103D100001F03FF90022B14B01F014F901F0CAF9AA
:103D20000600AF4AAF4B2000290001F032F9040031
:103D30000D00300001F0A6F9AB4AAC4B01F029F9B7
:103D400002000B002000290001F0F3F804000D0030
:103D500002000B0001F01DF90A900B91A44BF3181F
:103D600000261F0522002B002000290001F0EAF8A0
:103D70000E900F9122002B0000208021C90501F038
:103D8000D8F804000D0000229A4B0A980B9901F014
:103D9000E2F80022984B01F0D5F802000B000A98D7
:103DA0000B9901F0D8F80022944B01F0CBF80200F7
:103DB0000B000A980B9901F0CEF802000B002000CE
:103DC000290001F0BFF802000B000E980F9901F0D6
:103DD000C2F80022774B01F0B5F832003B0001F049
:103DE000D8F806000F0004000D00069A079B01F0AA
:103DF00031F9002830D001235B429C46E144002287
:103E00007D4B3000390001F0A6F804000D0023E0DE
:103E10001E9B04931D9B03931C9B0293089A099B72
:103E20000092019343460C9A5146584600F0FCF824
:103E300011B0F0BCBB46B246A946A046F0BD002377
:103E4000002406930794069680231B069C4665442F
:103E500007951AE7002399464B466333C62B1ED8B5
:103E600004261E9B1B0526D52B0023430FD0644A36
:103E7000644B0698079901F0E5F8002879D00022F4
:103E8000614B0698079901F0CFF8002871D01C9B70
:103E90004B4506DD4A46981A431E1C9303E005264F
:103EA000DFE700231C938023DB001E9A1A431E9237
:103EB0000026002399461D9B9E4264D29F1B02232D
:103EC0001E9A1A400A921E9A134202D0002E00D067
:103ED00000274B46002B07D022002B00069807999D
:103EE00001F039F8069007910022002308980999FB
:103EF00001F09AF8002848D1444B1E9A13400493CD
:103F000003971C9B0293069B079C009301944346D6
:103F10000C9A5146584600F087F8002E00D187E7EA
:103F20001E9B9B063DD54525441C43460200514639
:103F30002800D8474B46DA179B18534005220592B4
:103F4000013E0496002203920A3202924A46D00FA2
:103F5000019000934346220051465846FFF78AFDE0
:103F60000A9B002B00D163E702005F460C9E1D9D5B
:103F700054E01C9B002B9ED00D9B002B9BD01C9BC8
:103F8000013B1C9397E7002799E7069C079D2200B9
:103F9000290080200006844661440B0006920793A6
:103FA000AAE76525C0E7C046FFFFEF7FFFFFEFFFF1
:103FB00001FCFFFF0000F03FFB799F501344D33F0B
:103FC000B3C8608B288AC63F0000F83F61436F6327
:103FD000A787D23F71A379094F930A400000E03FC1
:103FE0001655B5BBB16B0240EF39FAFE422EE63FE3
:103FF000FF03000000002C40000024400000184097
:104000002D431CEBE2361A3F80842E41FFF7FFFF61
:10401000541C434651462020B8472200931BAB4214
:10402000F6D3100004E7C046F0B5DE4657464E46CC
:104030004546E0B595B00690079193469946209F76
:104040001E9A1F9B1000190001F009F8002831D1B9
:1040500001225242BF4B1E981F9900F0E5FF002835
:1040600037D101225242BC4B1E981F9900F0F2FF3B
:1040700000283DD10022B94B1E981F9900F0EAFF9D
:10408000002850D10022B64B1E981F9900F0CCFF9B
:10409000002848D1002200231E981F9900F0C4FF79
:1040A000002850D100239846229B5B0500D4B6E03F
:1040B000002458E0229B0393219B02930323019346
:1040C000A84B00934B465A4607990698FFF7F2FB18
:1040D0000EE1229B0393219B029304230193A24BA5
:1040E00000934B465A4607990698FFF7E3FBFFE01B
:1040F0000423229A1A4022990B4210D09B4B002A8B
:104100000FD00422229903912199029101920093E8
:104110004B465A4607990698FFF7CCFBE8E0944BCC
:10412000EDE70322EEE7229B0493219B0393029782
:104130001E9B1F9C009301944B465A460799069874
:10414000FFF768FDD4E01E9A1F9B0020002100F0BD
:10415000F0FE1E901F9101239846A5E70CAB30227C
:104160001A55013F01341F2C01D8092FF6D81E988B
:104170001F9900F09FFF050000F084FF02000B0074
:104180001E981F9900F0D5FEFA007A4B9B181A680A
:104190005B680A920B9300F0FCFE0890099100F016
:1041A000ADFF060000F06AFF02000B0008980999B5
:1041B00000F0BFFE0890099100226F4B00F04AFF0B
:1041C00000282ED00136300000F058FF02000B000E
:1041D0000A980B9900F02EFF002801D00135002627
:1041E000002F2CD1280000F04DFF02000B001E987C
:1041F0001F9900F09EFE06000F0000225E4B00F0AB
:1042000013FF002846D100225B4B3000390000F03C
:1042100021FF00283ED1EB073CD501353AE00627C7
:1042200046E70022544B0898099900F0FDFE00284B
:10423000D6D1002E01D0F307D2D50136D0E7AA4659
:104240001F2C11D8013F0A21300000F037FC651CFB
:1042500030310CAB19550A21300000F02FFC092E2B
:104260000ED906002C00EBE755461F2C0CD87B1E00
:10427000002F09D00CAA302111551F000134F4E79A
:104280002B0055461C00F0E71F2C03D80CAB2E2248
:104290001A5501341F2C10D80A21280000F0E6FB23
:1042A000661C30310CAB19550A21280000F0DEFBEA
:1042B000051E01D03400EDE734000323229A134099
:1042C000012B1CD01F2C06D84346002B32D00CAB40
:1042D0002D221A550134229B0393219B02930194B2
:1042E0000CAB00934B465A4607990698FFF7E2FA43
:1042F00015B0F0BCBB46B246A946A046F0BD219B16
:10430000002B13D04346002B02D10C3313420FD0A5
:10431000219B013B2193190003E00CAB30221A557D
:1043200001348C42CED21F2CF7D9CBE72199F8E784
:104330002199F6E7229B5B0704D50CAB2B221A557B
:104340000134C8E7229B1B07C5D50CAB20221A55A8
:104350000134C0E7FFFFEFFFFFFFEF7F65CDCD41E9
:1043600065CDCDC19CDD0410A0DD041094DD0410EA
:1043700090DD041088DF04100000E03FF0B5DE4659
:1043800057464E464546E0B593B082468B4690462A
:104390001193002900D1EBE200275546119B1878B4
:1043A000002800D1E7E2252809D07C1C43463A00CA
:1043B0005946A847119B013311932700EEE70133BB
:1043C00011930024119A11780B00203BD8B21028C9
:1043D00003D88300D048C3589F460B00303BDBB264
:1043E000092B2CD92A292FD000230A93119B1A7844
:1043F0002E2A39D000239A46119A1378683BD9B2F5
:10440000122976D88B00C549CB589F4601231C43FF
:1044100001321192D6E702231C4301321192D1E7F7
:1044200004231C4301321192CCE708231C430132C0
:104430001192C7E710231C4301321192C2E711A861
:10444000FFF726FA0A90D1E71C9B1A1D1C921868E8
:10445000002804DB0A90119B01331193C6E7022365
:104460001C4343420A93F6E78022D20014435A1CAD
:1044700011925A781300303BDBB2092B04D92A2A57
:1044800007D000239A46B7E711A8FFF701FA824642
:10449000B2E71C9B1A1D1C921868002804DB824698
:1044A000119B01331193A7E70020F8E780235B00FD
:1044B0002343511C119152786C2A01D01C0018E042
:1044C000C0239B001C430131119112E08023234340
:1044D000511C11915278682A01D01C0009E0C023B8
:1044E0001C430131119104E080235B001C43013225
:1044F0001192119B18780300253BDAB2532A00D998
:104500002CE29300864AD3589F4680239B001C438D
:1045100001321192EDE780235B001C4301321192BE
:10452000E7E7782809D0582838D06F2838D0622893
:1045300038D010239C430A2600E01026582833D098
:10454000692803D0642801D00C229443630501D567
:104550000122944369282AD0642828D0A30500D5D5
:104560009FE0E30500D5B8E0630600D4CAE01C9ADA
:10457000111D1C911168FF220A4005940A9B0493A7
:1045800053460393029600230193009243463A0058
:1045900059462800FFF76EFA070027E01026CDE7FE
:1045A0000826CBE70226C9E720221443C8E7A30563
:1045B00020D4E30550D4630666D51C9A111D1C91C6
:1045C0001168FF220A40D317D118594005940A9B5D
:1045D0000493534603930296D20F019200914346EF
:1045E0003A0059462800FFF745FA0700119B0133AE
:1045F0001193D3E61C9BDA1D07218A431100083171
:104600001C91116853689C46DB170C930D930C9A10
:104610000D9B100048400E90624653400F930E9839
:104620000F990C9A0D9B801A99410E900F91089446
:104630000A9B07935346069304960023059363460B
:10464000DA0F02920090019143463A005946280041
:10465000FFF76EFA0700C9E71C9A111D1C9112683A
:10466000D317D118594005940A9B049353460393DA
:104670000296D20F0192009143463A005946280013
:10468000FFF7F8F90700B1E7230605D51C9A111DBD
:104690001C910023D25E96E71C9A111D1C91126892
:1046A00091E71C9BDA1D07218A43110008311C91F8
:1046B00008940A9B07935346069304960023059398
:1046C0000293136854680093019443463A00594694
:1046D0002800FFF72DFA070088E71C9A111D1C918E
:1046E00005940A9B04935346039302960023019377
:1046F0001368009343463A0059462800FFF7BAF979
:10470000070073E723060DD51C9A111D1C91126832
:104710001204120C31E7C046A8DD0410ECDD0410D1
:1047200038DE04101C9A111D1C91126825E74628DA
:104730001AD01C9B0733072293431A0008321C929D
:1047400004940A9A0392524602925C681B68009392
:10475000019443463A0059462800FFF765FC0700DC
:10476000119B0133119319E620231C43E1E76728CD
:1047700001D0472802D180231B011C43452801D0CA
:10478000472801D120231C431C9B07330722934356
:104790001A0008321C9204940A9A0392524602921A
:1047A0005C681B680093019443463A005946280010
:1047B000FFF730FA0700119B01331193EEE5022356
:1047C0001A002240924623421FD001241C9B1A1D2E
:1047D0001C927A1C9146187843463A005946A847DD
:1047E0005346002B16D1119B013311934F46D5E54B
:1047F000561C434659462020B847230032005C1C13
:104800009D42F5D83D001700E0E701233A002F0054
:104810000A9DF4E74A46A9460A9D06E0571C43460E
:1048200059462020C84734003A00661CA542F5D8F6
:104830004D469146D7E71C9B1A1D1C921B68994652
:104840005346002B00D1013B4E4601E001361300D8
:104850003278002A02D05A1E002BF7D14B46F21AAA
:1048600010928023DB0026001E401C4203D05245DC
:1048700001D95346109302231A0022400B9223427F
:1048800005D03A0037004C46A946554620E03A008C
:10489000109B5F46B3462E0006E0551C4346390088
:1048A0002020B04723002A005C1C0A999942F4D8C2
:1048B00035005E46BB46109437004C46A946554627
:1048C00006E01D000134561C43465946C8473200D5
:1048D0002078002804D0002FF4D06B1E002DF0D1DA
:1048E00017004D460B9B002B03D1119B01331193F5
:1048F00054E50A9F109B06E0561C4346594620206B
:10490000A847230032005C1C9F42F5D81700ECE753
:1049100021231C431C9B1A1D1C921B6800930594A9
:104920000823049353460393102302930023019317
:1049300043463A0059462800FFF79CF80700119BB0
:10494000013311932AE57C1C43463A005946252041
:10495000A847119B0133119327001FE57C1C434698
:104960003A005946A847119B01331193270015E5DA
:104970000A4B9A4610E5AA46474502D343465A1EBB
:1049800000E03A00434659460020D047380013B0B3
:10499000F0BCBB46B246A946A046F0BD8138001027
:1049A0000EB410B585B0010007AC08CC0394012209
:1049B000009452420348FFF7E1FC05B010BC08BC6C
:1049C00003B018477938001000B583B00093130086
:1049D0000A0001000248FFF7D1FC03B000BDC04649
:1049E0007938001000B585B0029003910121009341
:1049F00013004A4202A90248FFF7C0FC05B000BDFF
:104A00008338001001480421014B18474019002049
:104A1000354A001010B5010018231B881422108895
:104A2000984710BD10B5010018231B881622108866
:104A3000984710BDF0B5C64600B507000E0000252A
:104A40000123984600E00135B5420AD2AC003C197A
:104A50002068FFF7DFFF20600028F4D1002398468C
:104A6000F1E7404680BCB846F0BD0000124A936FA3
:104A70009B0815D29066D166002905D0FFE7FFE7B5
:104A8000FFE7516F106F704704B580210906C21708
:104A90005140002800D0C84347F0E2FC002104BD8B
:104AA000F0B5146E556E576F166FFFF7E3FF14667F
:104AB000556657671667F0BD000000D0114A936F26
:104AC0009B0813D210665166002905D0FFE7FFE767
:104AD000FFE7516F106F704704B5002801D0002028
:104AE000C04347F0BDFC002104BDC046F0B5146EC4
:104AF000556E576F166FFFF7E5FF146655665767DB
:104B00001667F0BD000000D094464A4A926F9208A2
:104B1000624601D228E0C046F0B5464E346E756E4E
:104B2000776F366F00F020F89446424A1466556657
:104B3000576716676246F0BD94463E4A926F9208E8
:104B4000624601D254E0C046F0B53A4E346E756EFE
:104B5000776F366F00F04CF89446364A1466556607
:104B6000576716676246F0BD002B24DB11D0002981
:104B70003EDA00B5C943404200D1013100F038F8B7
:104B8000C943404200D10131DB43524200D10133DD
:104B900000BD002AEBD1002801D1002905D000205A
:104BA000C90FC90701D1C043410800B547F030FC27
:104BB0000022002300BD00B500290ADBDB4352427E
:104BC00000D1013300F014F8C943404200D1013153
:104BD00000BDC943404200D10131DB43524200D104
:104BE000013300F005F8DB43524200D1013300BD30
:104BF000002923D1002B18D1002A0CD0BC460D4F20
:104C000038667A6600210023FFE7FFE7FFE77A6F47
:104C1000386F67467047002801D00748010000B58B
:104C200047F0F6FB0022002300BD02000B0000202D
:104C300000217047000000D0FFFFFFFF002B00D0D5
:104C4000BFE0130C28D1002AE7D080B4114F396699
:104C50007A66FFE7FFE730B4040C7B6F396F1B0403
:104C600023433B667A66FFE7FFE7FFE7C04684B26F
:104C70007B6F3D6F1B0423433B667A66FFE7FFE7CC
:104C8000C04600232C042D0C7A6F386F001969413F
:104C9000B0BC7047000000D0F0B594460025140E5B
:104CA00001D112020835140F01D112010435940FFD
:104CB00001D192000235D40F01D152000135D40B3D
:104CC0000134254F7C66254C3C660E0C93B2FFE701
:104CD000FFE7FFE73C6F6643360C7703BE4673433E
:104CE000DF0B5B04C01AB941130C7343DB18C91AFC
:104CF000CE086643360CB64493B273431F0F1B01B4
:104D0000C01AB941130C73431F0B1B05C01AB941DC
:104D1000860D8F023E436643360C092D24DB520A72
:104D20007243801A7703460A6643360C16235B1BD0
:104D3000DE40DF40BF1964466643821B704604357F
:104D400006330100D940A840C01900D30131A24266
:104D500006D20023F0BD0000000000D0FFFFFFFFDF
:104D6000121B0130F3D3F1E709277F1BFE40644695
:104D7000A2B27243801A00D20139220C7243130C82
:104D80001204821A99410B00704604351337010052
:104D9000F940A840801900D30131002B02D1A24272
:104DA0000AD2F0BD013000D30131121BFAD2013B0F
:104DB000F8D1A24200D2F0BD013000D30131121B64
:104DC000F7E7F0B51C0C00D080E00CB400251C0AFD
:104DD00004D11B02160E3343120208351C0B04D1FA
:104DE0001B01160F3343120104359C0B04D19B00A9
:104DF000960F334392000235DC0B02D192185B41CF
:104E000001351C00971864410134464F7C66464CBE
:104E10003C660E0CFFE7FFE7FFE7C0463C6F6643CA
:104E2000360C7703BE4697B27743C01B00D20139D8
:104E3000C01B00D201399FB27743C91BC91B170C95
:104E400077437E04FF0B801BB941CE086643360CC6
:104E50000C2D33DBB644120B1F053A431B0B97B2E4
:104E60007743C01B00D201399FB27743C91B170C8F
:104E700077433E043F0C801BB941860D8F023E43B1
:104E8000664329277F1BFE400C3D7746AF40BF1984
:104E900030BCA2B2ABB272437343801A9941220C68
:104EA0007243130C1204801A994102000B0001375F
:104EB000001BA941F9D2781E0021F0BD0C277F1BF1
:104EC000FE4077467F0BAF40FF19E0E700245D1CF2
:104ED00007D0144F7D663966FFE7FFE7FFE7FFE77E
:104EE0003C6F95B29EB265436643401BB141150CC1
:104EF0001E0C6543664336042F0C3E432D04401BB5
:104F0000B141994204D202000B0020000021F0BD03
:104F100001D19042F7D3801A994101349942F2D3DA
:104F2000F6E70000000000D0FFFFFFFF48404140CF
:104F3000484018B41B4B5B68FC46019308BD04DF76
:104F4000775C001018B4174B1B68FC46019308BD32
:104F500000DF815C00109446134A926F920809D2D8
:104F6000624618B40F4BDB68FC46019308BD0CDFAA
:104F7000395F00100C4AF0B5146E556E576F166FFE
:104F80006246FFF7EEFF084A1466556657671667D4
:104F9000F0BD18B4034B9B68FC46019308BD08DFC5
:104FA000DD5D0010EC460020000000D0FFB5504051
:104FB0004240504059404B40594000E0FFB5154F2A
:104FC0004C00640D03D0BC4204D10C0314D8002063
:104FD000090D09055C00640D03D0BC4204D11C031B
:104FE0000AD800221B0D1B0501264B4009D44B405B
:104FF00003D58B4200D18242FFBD9942FCD1904241
:10500000FFBD0B43DB1803431343F5D0C9434918D5
:10501000FFBD0000FF07000000B5FFF7CFFF01D084
:10502000002000BD012000BD00B5FFF7C7FF804193
:1050300000BDC04600B5FFF7C1FF01D9002000BD8B
:10504000012000BD00B5FFF7B1FF01D9002000BD70
:10505000012000BD00B5FFF7A9FF804100BD012080
:1050600040054A00121804D85A00121801D800202E
:105070007047012070470020704700000021002881
:1050800005D17047C1174840401AFAD0C90713B577
:10509000064B1B6898470CBC441CA2401005120B21
:1050A0000349091B09051943114310BDEC470020B2
:1050B0001F04000010B54C00620D8023D218DB00E5
:1050C000D21A5B057E2A10DD9E3A13DACC1709034B
:1050D000490819435242D140640001341532202A54
:1050E00005DAD0400843604310BD002010BD0846DB
:1050F000604310BDC80FC018013810BD18B4044B70
:105100005B6AFC46019308BD24DFE96000100000E3
:10511000EC46002018B4044BDB6DFC46019308BD3F
:105120005CDFF56100100000EC460020C94211D39D
:1051300000B549004908002200F018F8002904D4FD
:10514000002240428A41114600BD8021090600200C
:1051500000BD000018B4044BDB6EFC46019308BD93
:105160006CDFF76000100000EC46002018B4044B20
:105170009B6FFC46019308BD78DF136100100000AF
:10518000EC46002018B4044BDB6FFC46019308BDCD
:105190007CDF816100100000EC46002018B4044B55
:1051A000DB6CFC46019308BD4CDF2D630010000052
:1051B000EC46002018B4044B1B6DFC46019308BD5F
:1051C00050DFC96300100000EC46002070B51323C7
:1051D0001C78012C14D0012C14DC022C02DC1F4A98
:1051E0001F4B9A641F48FFF715FC1F4B186070BDDA
:1051F00099001A481A4A885001331F2BF8D9EAE758
:105200000023FAE71948FFF70DFC05001848FFF7DF
:1052100009FC023803789B007F2B19DD80222900CE
:105220000F4801F089FB022CD7D1124B1A88B52305
:105230001B029A4209D1104B1A88104B9A4204D192
:105240000F4B1A880F4B9A42C7D00020FEF7FCFA8A
:105250000D4B0E4A32210E48FEF72EFA3D5C00102F
:10526000EC4600204C330000EC4700205344000083
:105270005346000054380000D8380000494600006A
:105280009C38000059460000D8DF041090E004105C
:105290002CE0041070B504000D001600012A0ED099
:1052A000D20F92195210FFF7F5FF02000B00FFF723
:1052B00070FEF30703D522002B00FFF76AFE70BDD6
:1052C000F0B5D6464F464646C0B588B014001D001E
:1052D0000E0D7605760D974B9846B044964B9B1B6A
:1052E000009001910F0D7F0514D0944FBE4211D054
:1052F000991900290ADD924881423ADD019BDB0FB2
:10530000DB0700208F4A1A43110003E00020019BB5
:10531000DB0FD907FFF74EFF8B4A8C4BFFF71BFEC5
:1053200000228B4B00900191FFF794FE00280AD0D9
:105330000022884B00980199FFF7FBFD0090019136
:10534000854B9846B0444346002B1BD00022834B2C
:1053500020002900FFF776FE00281FD04346002BCF
:1053600019DB0020774908B0E0BCBA46B146A84630
:10537000F0BD00201905009A019B12184B41100046
:105380001900C7E722002B0000980199FFF701FEE2
:1053900000F030FAE7E700200021E4E70022704B3C
:1053A00020002900FFF746FE002808D04346002BC6
:1053B00002DB00200021D6E700206249D3E720006D
:1053C000290000F0C9F906000F0002000B002000C0
:1053D0002900FFF7AEFD029003911A2200F094F924
:1053E00000F0BAF904000D0002000B00090D490598
:1053F000480D002913D05149884210D01A3800288E
:105400000ADD4F49884200DC84E0EB0FDB07002413
:105410004C4A1A43150002E00024EB0FDD0722007E
:105420002B0002980399FFF784FD06900791300046
:105430003900FFF73FFE8146030041464B439A4641
:105440004046FFF71FFE22002B0004900591FFF756
:10545000A0FD06000F0000F07FF904000D00FFF72B
:1054600029FE8046D04422002B0030003900FFF78F
:1054700060FD04000D00069A079B04980599FFF74C
:1054800088FD02000B0020002900FFF75BFD04905F
:1054900005914846FFF7F6FD009A019BFFF779FD5D
:1054A00004000D0000F058F906000F00FFF702FE9F
:1054B000804432003B0020002900FFF73AFD049AA7
:1054C000059BFFF73FFD04000D00029A039B009827
:1054D0000199FFF75EFD22002B00FFF733FD00F07E
:1054E00089F904000D000B0D5B055A0D002B00D14E
:1054F00039E7124B9A4200D135E74244002A0EDDCB
:105500000F4B9A420FDDCB0FDB0700200D4A1A43E9
:10551000110028E70024134DA4185D417FE7002007
:10552000CB0FD9071FE70020434619050019694131
:1055300019E7C04601FCFFFFFF030000FF07000062
:10554000FE0700000000F07FEF39FAFE422EE63F32
:105550000000E03F0000F03F02FCFFFF0000B04011
:105560000000B0C0000060FEF0B5D64600B582B0C5
:1055700001900E0000921D0003000C00CA0F92461D
:10558000002955DA2A0D5205520D584952183ED4B9
:1055900034218A1A3DD45439501825D41F31814002
:1055A000012040429040009E864330002E008E43F2
:1055B000310001432FD1342A2FD0203951181CD467
:1055C0002A00CA4001210A40002A28D0180080265B
:1055D0003606A119009A2B00FFF7C6FF8B19190098
:1055E00002B080BCBA46F0BD2020801A0121494299
:1055F0000E00C64091403143D2E72021891A28008D
:10560000884001000098D04002000A43DAE70022F7
:10561000DAE70022D8E70022D6E70122D4E7180013
:1056200080231B06E118009A2B00FFF79DFFD7E7A8
:1056300000982900FFF73EFD0700019A310D49054A
:10564000480D002907D02A49884213D033031B0B89
:1056500013435842584100280ED1002F43D03B003D
:105660002033402B2DD9009A2B0001983100FFF7F1
:1056700027FEB5E75046EEE7200D4005400D1B4BD9
:105680009C46604480231B019F4204DA194B9F42D1
:1056900002DA184F00E0164F7843174BC318002B5F
:1056A00009DD164A934209DC00260705002014494B
:1056B0008019794194E70020002191E700201149E9
:1056C0008EE7002F05DB3A0001983100FFF7E2FD7D
:1056D00086E7019A330000200949FFF73CFC01905E
:1056E0000E007F42EFE70020054979E701FCFFFF4C
:1056F000FF07000000F8FFFFFF030000FE070000A7
:105700000000F03F0000F07F30B50B0D5B055C0D35
:10571000002B14D00D4B9C4211D01419002C09DD24
:105720000B4B9C420CDDC90FC907002409480843F4
:10573000050002E00024C90FCD072000290030BD7C
:105740000024150524184D41F7E7C046FF07000067
:10575000FE0700000000F07F70B50B0D5B055B0DD0
:10576000224A944663445A1C26DB5A1C2AD034220F
:10577000D21A002A1FDD3324E41A20235B42E518E5
:1057800027D40126AE4033000125A5402A00121877
:105790004B4120214942651821D40226AE403100F8
:1057A0000225A5402800002544428D4116002640D0
:1057B00030002B40190070BD0022C90FCB0710002C
:1057C0001900F8E7CB0FDB070020094A1A43110044
:1057D000F1E720252D1B0126EE403300D4E72025DC
:1057E0002D1B0226EE403100DAE7C04601FCFFFF28
:1057F0000000F03F70B505000C000A0D284B9A42DE
:1058000047D00022274B28002100FFF713FC002877
:1058100042D10022244B28002100FFF713FC00286E
:1058200002D00020214939E028002100FFF794FF31
:10583000FFF740FC0600FFF725FC02000B002800E4
:105840002100FFF776FB1A4A1A4BFFF7A2FBFFF77E
:10585000A5FC04000D000B0D5B055A0D002B1DD09F
:10586000154B9A421AD0B218002A09DD134B9A42FE
:105870000ADDCB0FDB0700200C4A1A4311000DE0B4
:105880000020CB0FD90709E000203105001969413C
:1058900004E00020002101E00020002170BDC0468E
:1058A000FF0F00000000B0C00000B0400000F07F1B
:1058B000EF39FAFE422EE63FFF070000FE07000028
:1058C000F0B583B0050000900C0001921F0000228B
:1058D000B44B28002100FFF79FFB002841D13E0D6B
:1058E00073055D0D002B3CD00022AF4B00982100CA
:1058F000FFF792FB002803D0AC4B9D4200D181E121
:10590000220D5305590D002B00D081E0FA0F002F16
:105910003FDB3B0D5B055B0DA5495B181CD43421B7
:10592000CB1A19D45439581821D41F318140012081
:1059300040429840019D854328003D008D43290049
:10594000014309D1342B22D0202252429A1817D475
:10595000D7403A0001231A40002A00D155E1009DAA
:1059600001E000258F4C2800210003B0F0BD20206D
:10597000C01A012149420D00C54099402943D6E78C
:105980002022D21A9740019ADA403A43E2E70122F4
:10599000E2E73B0D5B055B0D854A9B181BD4342267
:1059A000D31A18D4543A981820D41F3282400120B8
:1059B00040429840019D854328003D0095432A00C0
:1059C000024308D1342B21D0203A9A1817D4390039
:1059D000D14001231940002900D119E1E40FE40767
:1059E00000227449214315000C00BCE72020C01A96
:1059F000012252421500C5409A402A43D7E720228F
:105A0000D21A97400199D9403943E2E70121E2E7F0
:105A1000664B9A422CD0684B9A422FD0634B9E42E1
:105A200000D1A9E0644B9E4200D1ABE03B0D5B0589
:105A30005A0D002B00D1C5E05D4BD21800D5C9E04E
:105A400034239A1A002A00DCC6E0543BD11800D552
:105A50009EE01F338B40012149429140019A8A43C5
:105A6000390099430B00134300D0B7E00133AAE09B
:105A7000002F00DBCFE00025002474E7FA0F002F91
:105A80003ADB3B0D5B055B0D49495B181CD43421A7
:105A9000CB1A19D4543958181CD41F318140012015
:105AA00040429840019C844320003C008C432100EC
:105AB000014309D1342B1DD0202252429A1812D40E
:105AC000D7403A0001231A40002A00D1A6E0002561
:105AD0003A4C48E72020C01A012149420C00C4403A
